:100000000000022091F50200B9F50200BBF50200E4
:10001000BDF50200BFF50200C1F5020000000000BE
:100020000000000000000000000000000D8C020035
:10003000C5F50200000000002D8C0200C9F5020089
:100040008DF90200CBF50200EDAD02003DCE0500BA
:10005000CBF50200CBF502007D980200CBF5020043
:10006000699F0200C19F020019A00200D19C0200FA
:10007000CBF50200CBF50200CBF50200CBF5020078
:10008000BDAB0200C1870200CBF50200CBF5020038
:10009000CBF50200CBF50200CBF50200CBF5020058
:1000A000CBF50200CBF50200CBF5020071A00200F7
:1000B000CBF50200CBF502000000000000000000BC
:1000C000CBF50200CBF50200CBF50200B5CE050062
:1000D000CBF50200CBF50200CBF5020019BE020001
:1000E000CBF502000000000000000000000000004E
:1000F00000000000CBF5020000000000ADCD0500BF
:1001000000000000000000000000000000000000EF
:1001100000000000000000000000000000000000DF
:1001200000000000000000000000000000000000CF
:1001300000000000000000000000000000000000BF
:020000021000EC
:10000000EFBEADDE000000000000000000000000B8
:1000100000000000000000000000000000000000E0
:1000200000000000000000000000000000000000D0
:1000300000000000000000000000000000000000C0
:1000400000000000000000000000000000000000B0
:10100000EC7B060002000000B936010095380100B3
:10101000B53B010071340100000000002D2E0100DD
:101020007D32010010B5054C237833B9044B13B160
:101030000448AFF300800123237010BD7008002026
:1010400000000000D411070008B5034B1BB1034991
:101050000348AFF3008008BD0000000074080020C2
:10106000D4110700A3F5803A704700BF174B002B3F
:1010700008BF134B9D46FFF7F5FF00218B460F4637
:101080001348144A121A11F049F90E4B002B00D0E4
:1010900098470D4B002B00D09847002000210400FA
:1010A0000D000D48002802D00C48AFF3008011F06D
:1010B000B1F82000290000F013F811F085F800BF06
:1010C00000000800000000000000000000000220F6
:1010D0007008002004DA0120000000000000000079
:1010E00008B500F01BF802F0FFF802F0E1F800F09C
:1010F00043F801F057FF01F0E5FE064802F0CCF896
:1011000002F0C4F8034600209B68984701F088FE6F
:10111000FEE700BF0010010030BF704700B583B08C
:1011200000F042F8032017F0E9FD4FF0A0430C2235
:10113000C3F83C2718F03AF880B119F0E1FD0B4BE9
:101140001B6898470A4B1B6898470A4B1B6801931A
:101150004EF6602003B05DF804EB184718F02CF849
:101160000028EAD017F07EFFE7E700BF9876060078
:101170007C7606005C76060008B5094B09481B68BA
:10118000984701F067FE20B9BDE80840002000F054
:10119000B3BB00F0C1F8BDE80840002000F0ACBBD4
:1011A000E8760600AD310100204B1B680D2B08D0FE
:1011B000FF224FF01023D3F80832DBB293420DD157
:1011C00070471B4B1B68022B01D95A22F1E7194AC1
:1011D000D35C002B0CBFFF225A22EAE7164B0121F9
:1011E00030B4C3F80415D3F800140029FBD04FF035
:1011F00010240025D4F808120F4821F0FF010A43FB
:10120000C4F80822C3F80455D0F80034002BFBD0F2
:10121000BFF34F8F09490A4BCA6802F4E0621343D7
:10122000CB60BFF34F8F00BFFDE700BF3001001060
:10123000340100104C76060000E0014000ED00E0B3
:101240000400FA05024A136801331360704700BFB7
:101250008C080020014B187819F024BDB8CB012070
:1012600010B5114B044693E8070084B001AB83E846
:1012700007000E490294184619F0B4FC38B90C481E
:1012800019F0EAFC50B919F0D9FC04B010BD17F000
:10129000E9FE074819F0E0FC0028F4D017F0E2FE60
:1012A00019F0CCFC04B010BD5076060045120100C8
:1012B000B8CB0120F0B50478631E012B83B01ED992
:1012C0000CB103B0F0BD124F3B680DF107001E8852
:1012D0005D8817F04DFE0F4B1A78B2B9731CED1AEA
:1012E000C5F30A053DB13A689DF807101644C3F3EB
:1012F0000A033171138001F029FE03B0F0BD3721DC
:10130000002000F0E7F903B0F0BD1C7003B0F0BDA1
:10131000000000209410002030B50C4D0C4B8BB019
:1013200004AC00930FCD0FC495E8030084E80300DC
:10133000084C094A4FF400650623694604A8CDE924
:101340000245019517F098FD0BB030BD647606009C
:101350009810002098180020B512010079B138B516
:101360000446451801E0AC4207D014F8010B17F011
:101370002DFE0028F7D01B2038BD002038BD0020EE
:10138000704700BF014B1B68036070479820002026
:10139000054B1B68984288BF03F1FF33181A884237
:1013A00034BF0020012070479820002010B584B081
:1013B0000021104B0391104A1048029302A918F023
:1013C000DFFC044698B90E4B0C48D3F810254FF4B7
:1013D0007A510123D2B221FA02F20093002118F0CF
:1013E00097FD064818F06CFD204604B010BD17F0BC
:1013F00039FEE8E7070000070514010088760600BB
:1014000000A00040B0F5A07F03D1024A1368013369
:101410001360704798200020034B044A1B68D3F8E0
:101420000413C3F8082370470400002003000F00D2
:10143000034B1B684FF48032C3F80423704700BF8E
:1014400004000020024BA02283F80B23704700BF4A
:1014500000E100E0024B1B68D3F80405704700BFB1
:1014600004000020081A48BF00F18070704700BFD8
:10147000014B1860704700BFA42000209FED010AB7
:10148000704700BF286BEE46704700BF0F4BF0B4AB
:101490001B680F4DD3F804352C68B4EBD33F4FEAEB
:1014A000D3360DD80B4C24682E6006EB44244FF441
:1014B0000047C3F30E0304600B601760F0BC704775
:1014C000044F3C6801343C60EEE700BF040000209C
:1014D000A02000209C200020144BF0B41D68642341
:1014E000D5F8046502E013F0FF0305D0D5F80445F4
:1014F000A64203F1FF33F6D00D4D2B68B3EBD43F7A
:101500004FEAD4360DD80B4B1B682E6006EB4323F5
:10151000C4F30E044FF4004703600C601760F0BC86
:101520007047044F3B6801333B60EEE70400002046
:10153000A02000209C20002008B5054818F06CFB76
:10154000034818F033FB034B00221A6008BD00BFAC
:1015500004000020A4200020044B1A68024422F05A
:101560007F4203480123002118F062BB0C000020D9
:101570000400002010B50B4B0B4C0C4A93E8030001
:1015800082B000230090ADF804100948236069463A
:10159000ADF8003018F0C8FA10B9054818F030FB63
:1015A00002B010BD90760600A4200020B515010001
:1015B0000400002018B9024B1B6803B1184770479C
:1015C000A420002007EE900ADFED1B6A1B4BB8EE4B
:1015D000677A70B5C7EE267A93E8030082B0184C9C
:1015E000184E009000232046ADF80410ADF80030EE
:1015F000FCEEE77AC6ED007A18F00EFB204618F0F4
:10160000D5FA114A2046694618F08EFA90B9054677
:10161000204618F055FB22683368D2F804251A4496
:10162000294622F07F420123204618F001FB204684
:1016300018F0E6FA02B070BD286BEE469076060010
:10164000040000200C000020B515010007EE900AF0
:10165000DFED1B6A1B4BB8EE677A70B5C7EE267AD2
:1016600093E8030082B0184C184E009000232046E7
:10167000ADF80410ADF80030FCEEE77AC6ED007A64
:1016800018F0CAFA204618F091FA114A2046694625
:1016900018F04AFA90B90546204618F011FB226866
:1016A0003368D2F804251A44294622F07F420123E8
:1016B000204618F0BDFA204618F0A2FA02B070BD1C
:1016C0000000FA3C90760600040000200C00002088
:1016D000B51501002DE9F84F1B4B197088B31B4D50
:1016E000DFF86CA08B4645F001054FF0A048BBF138
:1016F000000F25D0D946102703269AF8000019F0CC
:10170000D1FA6424C8F80C754FF47A40A847013C1C
:10171000FAD1C8F8087564244FF47A40A847013C10
:10172000FAD1013EE9D14FF47A744FF47A40A847D8
:10173000013CFAD1B9F10109DED1BBF1000FD9D1D9
:10174000FEE7BDE8F88F00BFA8200020E076060085
:10175000B8CB0120024B187880F00100704700BF21
:1017600078210020704700BF10B5064B04460A469A
:101770000548214601241C701DF096FEB0FA80F049
:10178000400910BD782100200077060008B5124BF3
:1017900018601CF0EDFD114B114800221A701BF06F
:1017A00003FC38B90F481BF0D7FC50B91BF096FC6E
:1017B00068B908BD17F056FC0A481BF0CDFC00289C
:1017C000F4D017F04FFC1BF089FC0028F1D0BDE8E5
:1017D000084017F047BC00BF74210020782100208A
:1017E000247706000077060010B5032906D8DFE845
:1017F00001F00E021D06144B00221A7010BD124B90
:101800000022BDE8104001201A7017F051BA1DF0F7
:101810006FFE0E49044640220D481DF06DFE0D4B33
:101820000A481B682146BDE810401847064B0022B5
:1018300001201A7017F02AFABDE810400349044845
:1018400040221DF059BE00BF782100203421002025
:101850000077060074210020023808B50D280CD846
:10186000DFE800F00C110B0B0B0B1621280B0B0BF8
:101870002C071CF077FD052826D008BDBDE80840E0
:10188000002017F015BABDE80840002017F0FEB997
:101890001AF064FE0028F0D117F026FDC8B9BDE8A3
:1018A00008401BF033BC1BF049FCBDE80840002099
:1018B00017F0D2BCBDE808401BF02CBC1BF028FC84
:1018C000BDE8084017F006BABDE80840032001F063
:1018D0006BBD17F0EFFC17F007FD0028FBD1DEE72A
:1018E000044AD2E9003113F1FF3341F10001C2E9AA
:1018F000003170478021002008B500230D4A0E49B1
:10190000184600F067F80D4A106030B101224FF020
:10191000FF3100F05FF930B908BD094B094A0A48A8
:101920002A2110F033FC094B064A07482D2110F0FC
:101930002DFC00BFE1180100CC77060088210020B3
:1019400030770600B47706003C770600AC770600D7
:1019500000B5084B83B001A9186800F06FF9064B79
:101960000198D3E90023101843F1000103B05DF89A
:1019700004FB00BF882100208021002070B5104E9C
:1019800084B005460C46306803A900F057F930686A
:1019900002A900F053F9029A039B9A42F7D0094B2F
:1019A0000299D3E90023521843F10003C5E900234B
:1019B0002BF01AFC0190019B236004B070BD00BFA6
:1019C00088210020802100200B690BB1486918474D
:1019D000704700BF2DE9F04F85B08846019200297D
:1019E00038D06B4C267B05469A4616B3237A834241
:1019F00000F0CA8094F82430002B00F0BF8094F8E7
:101A00002030834200F0BA8094F83C30002B00F084
:101A1000B78094F83830834200F0B28094F85430A4
:101A2000002B00F0B38094F8506086420CBF032670
:101A30000426042D04D8DFE805F077838F03130014
:101A40005448554B5549C01AC008000440F00200E4
:101A500000F07EFA4FF0000B584605B0BDE8F08F5D
:101A600006EB460304EBC3024D4944F8331040F241
:101A700003639380770007EB060904EBC909012390
:101A800089F80C30484618F0EDF9D8F8002045499F
:101A90008A42CB464FF001036AD243498A420DD2B3
:101AA000424B9A4266D8424B9A4265D8414B9A4281
:101AB00068D8414B9A4294BF0923082398F805102F
:101AC0008DF8083003294FF000038DF809303E44AB
:101AD00098BF3A4B3A4A98BF5B5C0199CDF80C909D
:101AE00004EBC60488BF032398F8046021614846CC
:101AF00002A9C4F814A025728DF80B608DF80A3085
:101B000018F03EF90028A7D0234B22482D49C01ACF
:101B1000C0084FF0000B00042A4640F0020084F891
:101B20000CB000F06DFA97E706EB460304EBC30236
:101B3000254944F833104FF48063938077009AE787
:101B400006EB460304EBC302204944F8331040F28D
:101B50000143938077008EE706EB460304EBC30254
:101B60001B4944F8331040F202439380770082E728
:101B70000023A3E70223A1E703239FE7012658E7F9
:101B8000022656E7042399E7002652E7032650E78A
:101B90008C21002028120700D8110700D4770600F6
:101BA00000B001400024F40000127A00FF083D005C
:101BB0007F841E003F420F006789090040780600BD
:101BC000C919010014780600008000400090004010
:101BD00000A0004028B370B5044682B0D9B10368B4
:101BE000D3F81055EDB20E0FC5F12003090106FA26
:101BF00003F3E940203D1943002A26FA05F54FF08A
:101C0000010640F2011341EA050218BF334600966F
:101C1000002118F07DF9204618F052F9002002B09A
:101C200070BD6FF00A00704720B108B518F056F982
:101C3000002008BD6FF00A00704700BF58B110B512
:101C40000C4629B1012118F057F92060002010BD81
:101C50006FF00A0010BD6FF00A00704738B5A0B1F0
:101C60000B4D0446002308462B7000F0D7FB0948B3
:101C7000C5F80C4800F0E8FB044608B1204638BD22
:101C8000054800F021FD204638BD0724204638BD18
:101C900068260020601207005C78060099B10E4BA0
:101CA0000E495B1ADB0815D030B400220C4D02E05F
:101CB000013293420BD035F822408442F8D151F8DA
:101CC000320030BC7047054951F8300070470020A1
:101CD00030BC70471846704750120700D8110700F3
:101CE00004DA0120094B013903EBC00003290BD8AA
:101CF000DFE801F004020806042070470220704764
:101D0000407970470079704700207047D81107006C
:101D1000704700BF2DE9F043874DD5E901239A4272
:101D200085B066D00023C5F81838BFF34F8FAC6874
:101D3000C4F30803D91C05EB810215F821104807EC
:101D40001AD56E68137803F00303012B4BD0022BD6
:101D500003D15388033404EB9314C4F30803D5F878
:101D60001808D91C05EB810230B9A64240F2E28086
:101D700015F821104907E5D405EB8301621CA31C6B
:101D8000C2F30802C3F30803C968019105EB82029C
:101D900005EB8303D268DB6801F003010229CDE97A
:101DA000022304F103067AD0012926D0D5F8104881
:101DB0003CB1236820469B689847E3681C68002C68
:101DC000F7D15E4B5E485F49C01AC008000440F07E
:101DD000020000F0BDF8AE686868801B18BF0120E3
:101DE00005B0BDE8F08313880334C3F383131C44A8
:101DF000B3E7002005B0BDE8F083BDF804305248D9
:101E0000C3F38312062A28BF0622D11C62F389136A
:101E10008900ADF8043000F019FB07460028C5D052
:101E200000F05EFB00230C2201A9384600F088FB7D
:101E3000BDF8043013F4707F19D06FF00208A8EBDE
:101E400004080C24C6F3080103312346042205EBE1
:101E50008101384600F074FBBDF80420013608EB20
:101E60000603C2F383129A4204F10404EAD8D5F8B7
:101E700010485CB1E3685A79204639465AB1236864
:101E80001B689847E3681C68002CF3D1384600F0C3
:101E90002BFBAE60A0E71C68002CEBD1F6E7BDF889
:101EA00006302948C3F38918B8F5FA7F444628BF9D
:101EB0004FF4FA7464F38F1304F10C01ADF806309B
:101EC00000F0C4FA074600283FF470AF00F008FBAA
:101ED000002301A938460C2200F032FBF343C3F380
:101EE00008030133B4EB830F4FEA8300C6F3080104
:101EF00017D95FFA80F9241A033105EB81014A46AC
:101F00000C233846E4B200F01BFB1049224609F1CD
:101F10000C03384600F014FB08F1030806EB9806A2
:101F2000A5E70331224605EB81010C23384600F07A
:101F300007FBF1E7AE6053E768260020D8110700E1
:101F4000281207004478060060120700742600205B
:101F50002DE9F041294E044600200F4617F070F895
:101F6000D6E9015303F500735B1B022B3CD9C5F383
:101F7000080808F10308EB1C0522002046F8282079
:101F8000736017F065F8002106F61C0017F0B2F830
:101F900080F310006B1CC3F3080306EB83030004FB
:101FA00040EA1440D8600235D6F80C38E40098476F
:101FB000C5F3080504F0380406EB850544F0010478
:101FC00044EA8724E86046F8284033781BB9FFF7D5
:101FD0009FFEBDE8F081FFF79DFE0028F7D0FFF7D8
:101FE00099FE0028F7D1F2E7012106F61C0017F050
:101FF0008FF8002017F02CF8E7E700BF68260020D4
:102000002DE9F8432D4E044600200F46914617F067
:1020100017F8D6E9015303F500735B1B032B43D973
:10202000C5F3080808F1030845222B1D002046F8D7
:102030002820736017F00CF8EB1CC3F3080306EBC1
:102040008303002106F61C00C3F80C9017F052F829
:1020500080F310006B1CC3F3080306EB830300043A
:1020600040EA1440D8600235D6F80C38E4009847AE
:10207000C5F3080504F0380406EB850544F0410477
:1020800044EA8724E86046F8284033781BB9FFF714
:102090003FFEBDE8F883FFF73DFE0028F7D0FFF7CD
:1020A00039FE0028F7D1F2E7012106F61C0017F0EF
:1020B0002FF8002016F0CCFFE7E700BF68260020CD
:1020C00030B4124DD5F8101804460020B1B10B46BB
:1020D00001E01B6853B1DB681A798242F9D1013003
:1020E0000A28F3D14FF0FF3030BC7047E26810711E
:1020F000CB68196811601C6030BC7047E3681871C8
:10210000C5F8104830BC1960704700BF6826002031
:1021100038B5084BD3F8104801251D704CB1236821
:10212000E2685B68557120469847E3681C68002C9C
:10213000F5D138BD68260020F0B5C38887B00446C5
:102140000D46002B54D1217A05294FD0637A002BFC
:1021500041D12B4B2B492C4A1E6820680968B0FBE3
:10216000F1F1B1FBF6F0A2FB00324FF4616CD70A3B
:10217000264B0CFB1707A3FB07C306FB10105B09DC
:102180004FF47A71C3EB031C01FB00F0A7EB8C0743
:10219000B0FBF6FC06FB1C00CDF804C0D20A009789
:1021A00001FB00F01A49B0FBF6F00290284600F05F
:1021B000A1FA184B227AA08853F822200592002118
:1021C000FFF76CFD059A14490346284607B0BDE8A1
:1021D000F04000F08FBAA088FFF784FD0F4B104944
:1021E00053F82020284600F085FAB2E707B0F0BD8A
:1021F0000C4A00920C490D4A284600F07BFAA2E7EF
:10220000A0300020A4300020C5B3A291898888881E
:102210009478060040790600B07806001C79060024
:1022200090780600887806007078060068780600C6
:102230002DE9F04385B04FF0000C0C9C814694F8DA
:102240000C8084F80CC00E461746184621461D46E1
:10225000FFF772FF062F09D8DFE807F0042E343BA2
:10226000444F1F004946204600F044FA2B7A052BC4
:1022700005D06B7A5BB92749204600F03BFA20462F
:1022800000F02CFA84F80C8005B0BDE8F083224AF7
:102290002249204600F02EFAEDE7D6E90413F26851
:1022A0000393B3680291CDE900324946D6E9002391
:1022B000204600F01FFAD9E732684946204600F070
:1022C00019FAD3E7D6E900234946204600F012FA6E
:1022D000CCE7B3680093D6E900234946204600F0D6
:1022E00009FAC3E7D6E9023201920093D6E9002346
:1022F0004946204600F0FEF9B8E7D6E90321B36865
:102300000291CDE900324946D6E90023204600F08B
:10231000F1F9ABE7BC7806008878060090780600F3
:10232000082900D970472DE9F04F9B4683B000245F
:102330001B7B8BF80C400D460646594610469046CE
:102340000193DFF8D0902C4FFFF7F6FE05E0325DE9
:10235000013400F0CFF9082C09D0A542394658467F
:10236000F5D84946013400F0C5F9082CF5D12349C8
:10237000DFF8A490224C234F584600F0BBF94FF0F1
:10238000000A0DE0D15D11F0970F08BF2E22214603
:1023900058460AF1010A00F0ADF9BAF1080F10D061
:1023A000554505D916F80A207E2AEBD92E22EEE7EC
:1023B000494658460AF1010A00F09CF9BAF1080FA3
:1023C000EED198F80830052B02D098F8093063B99F
:1023D0000D49584600F08EF9584600F07FF9019BF0
:1023E0008BF80C3003B0BDE8F08F084A0849584616
:1023F00000F080F9ECE700BFC0780600CC7806005A
:10240000D0780600BF850600BC78060088780600F4
:1024100090780600C8780600B8780600074A084990
:10242000012390420B6005D9400890424FEA4303D4
:10243000FAD80B60034B1860704700BF40420F0092
:10244000A4300020A030002000F0E2B82DE9F041D7
:10245000058A0331043D4E198046B6FBF5F600F0BF
:10246000F9F8A0B3F6B24FF48073013E0446C5807C
:10247000C0F8008083802BD00346002508E06279F5
:10248000AE4202F1010262713860C0F800801FD0D4
:1024900040461F4600F0DEF8013503460028EED125
:1024A0006779791E17D02246013399421268FBD111
:1024B000D2F800805FB12668002501E03446366816
:1024C00021460135404600F0E9F8AF42F6D8002435
:1024D0002046BDE8F0812068214600F0DFF8F6E7ED
:1024E0000430012116F014BE2DE9F041012104460B
:1024F000043016F01BFE10F0FF0301D0BDE8F081A0
:102500006779791E16D02246013399421268FBD1B1
:10251000D2F80080002FF1D02668002501E0344673
:10252000366821460135404600F0B8F8AF42F6D88B
:10253000BDE8F08120682146BDE8F04100F0AEB86A
:102540002DE9F843C68805464079144606FB00F29B
:10255000043A04EB030C1F1D624538BFD41ABE4277
:102560008846B7FBF6F106FB117002D801392D68D9
:10257000FCD1371AA74228BF27469CB14FF000096B
:102580000430E41B28443A4608EB09010FF0B8FE7A
:10259000A642B9442D6837464FF0000028BF2746B1
:1025A000002CEDD1BDE8F8832DE9F843C688054637
:1025B0004079144606FB00F2043A04EB030C1F1D9D
:1025C000624538BFD41ABE428846B7FBF6F106FB17
:1025D000117002D801392D68FCD1371AA74228BFE3
:1025E00027469CB14FF0000904302918E41B3A46F5
:1025F00008EB09000FF084FEA642B9442D68374667
:102600004FF0000028BF2746002CEDD1BDE8F8832D
:10261000E8B130B4D0E901431B1B0268DBB2591E9C
:10262000C9B214607BB1023B651C1560DBB221703E
:1026300041B101680A685C1E551C0D601370E3B25D
:10264000FF2BF6D102680020107130BC70470E20BD
:10265000704700BF70B50446002016F0F1FCD4E9C5
:1026600000231168994213D9A3681579481E106098
:102670001B1AE66811F8011C248ADBB29D4204FB98
:10268000016400D21371002016F0E2FC204670BDF8
:102690000024002016F0DCFC204670BD38B505464D
:1026A00000200C4616F0CCFC2A68298A1368581CB6
:1026B0001060EA68A41AB4FBF1F41C70BDE838405D
:1026C000002016F0C5BC00BF836800225A60C3E931
:1026D00004229A60DA601A60704700BF826842B1D3
:1026E00010B5436901680446006998470023A36058
:1026F00010BD70470EB400B582B0039921B104AB90
:1027000001AA019300F0ACF802B05DF804EB03B04D
:10271000704700BF2DE9F04F164683B0B142DDE9A6
:102720000C920F4605469A46C0F095800B464FF036
:102730000108B3FBF6F39E4208F10108F9D9D04530
:1027400038BFD04612F00103019302D1B9F1000F56
:102750005ED1AA68012403E00AF1FF3A06FB04F403
:10276000BAF1010FF8D8B7FBF4F39E42F6D9DFF8BF
:10277000ECA007E0B442B4FBF6F31AD3AA681C46F7
:10278000B7FBF3F31AF803B0BBF10A0F04FB13779E
:1027900028D02B68511CA96003F802B0D5E901329A
:1027A0009A42E7D32846FFF799FFB4FBF6F3B44209
:1027B000E4D2019B9BB1B9F1000F10D02024C84591
:1027C00009F1FF390BD2AB682A68591CA960D454AF
:1027D000D5E901329A4214D2B9F1000FEFD103B01A
:1027E000BDE8F08F511C2B68A9604FF00D01995482
:1027F000D5E901329A42CCD32846FFF76FFFAA6889
:10280000C7E72846FFF76AFFB9F1000FD7D1E6E71F
:1028100093071AD42024AA68C84502F1010199D26D
:102820002B68A9609C54D5E901329A4209F1FF391D
:1028300003D2B9F1000FEFD18CE72846FFF74EFF26
:10284000AA68B9F1000FE7D184E7BAF1000F0CBF15
:1028500030242024DFE74FF0010870E754790600A8
:10286000002900F04E822DE9F04FDFF8AC950C788E
:1028700085B0064690460D464FF00D0A10E00A2C32
:10288000B36800F0AD803268591CB160D454D6E909
:102890000130984280F0A0802C78002C00F08780D6
:1028A0000135002C00F08380252CE8D12946002733
:1028B0000D4611F8012B2D2A00F08880302A00F0F7
:1028C00088802B2A7AD02A2A00F09980A2F130033E
:1028D000092B4FF000040BD804EB840402EB4404F2
:1028E00015F8012FA2F13003092BA4F13004F3D91C
:1028F0002E2A00F09080002301E015F8012F02F04D
:10290000FB016829F9D0252A00F07181583AD1B22B
:10291000202947D8202A45D8DFE812F02F014400AB
:102920004400440044004400440044004400440087
:1029300044003D010D0144004400440044000D01E9
:10294000440044004400440044004400CC004400DF
:102950004400A20044009400440044002F010120E0
:102960009842024638BF1A460292002C40F04A8133
:10297000B80740F16881002B40F048821C46BBF14B
:10298000000FC0F204827A0700F1148207F00302FC
:10299000022A00F0B781CDE9004759460A223046A5
:1029A000FFF7B8FE01352C78002C7FF479AF337B2C
:1029B000002B40F0168105B0BDE8F08F0D4611F8F0
:1029C000012B2D2A47F004077FF478AF47F0010769
:1029D0006EE747F002076BE73046FFF77FFE5BE7E5
:1029E0003268591CB16002F803A0D6E90123934272
:1029F000FFF449AF3046FFF771FEB36843E7D8F8FC
:102A000000301A1DC8F800206A781C682E2A05F1CB
:102A100001057FF470AF6A78A2F13003092B05F14C
:102A200001054FF000033FF66AAF03EB830302EBAF
:102A3000430315F8012FA2F130010929A3F1300356
:102A4000F3D95CE7D8F80020116801970432C8F880
:102A50000020304600940A22FFF75CFE0135A2E711
:102A6000D8F800301A1DC8F8002017F00107D3F875
:102A700000B040F0EA80BBF1000F03D0584610F0E0
:102A800023FA0746BC4240F25581202202E0BC42B4
:102A900000F05081B1683368481CB0605A54D6E9E0
:102AA0000130984204F1FF34F1D33046FFF716FEAF
:102AB0002022ECE7D8F80030B2681F683168043390
:102AC000C8F80030501C3023B0608B54D6E9012385
:102AD000934280F0EF803268581C7821B060D15466
:102AE000D6E901329A4280F0E0800F2F03D93B46AD
:102AF0001B090F2BFCD84FF0805406E00F2C4FEA37
:102B000014137FF64FAFB2681C46B7FBF4F319F805
:102B100003B0BBF10A0F04FB137754D03368511C88
:102B2000B16003F802B0D6E901309842E6D33046EE
:102B3000FFF7D4FDE2E7D8F80010D1F800B08BEA37
:102B4000EB72A2EBEB720431092AC8F800107FF790
:102B500006AFDFF8C8C2012011466329ACFB02E2D0
:102B600000F101004FEAD202F6DC9842024638BF7B
:102B70001A460292002C45D1FAE6D8F800201168D6
:102B800001970432C8F80020304600941022FFF765
:102B9000C1FD013507E7D8F800301C7804330A2C52
:102BA000C8F80030B36800F011813268591CB16078
:102BB000D454D6E901309842FFF4F4AE3046FFF722
:102BC0008DFD0135EFE63368511CB16003F802A0BA
:102BD000D6E901329A42A1D33046FFF77FFDB268B1
:102BE0009CE7304605B0BDE8F04FFFF777BDB3680E
:102BF0003168581CB060CA54D6E901309842DDD221
:102C00000135D0E6BBF1000F59DB7A0757D4B8077E
:102C100002D5002B3FF4B3AEF9073FF5B0AE94B147
:102C200020220299A142BFF4AAAEB168481CB0604C
:102C300030684254D6E90101814204F1FF3480F04A
:102C4000D480002CEDD1002499E69BF80030002BB5
:102C500000F0E080B0685F46CBF101020A2B02EB86
:102C6000070B3CD0411CB16031680B54D6E90130F0
:102C7000984226D217F8013F002BEFD15C457FF632
:102C800091AE202702E05C453FF48CAEB268336819
:102C9000511CB1609F54D6E90130984204F1FF34D1
:102CA000F1D33046FFF71AFDEDE73046FFF716FD8A
:102CB000B2681AE73046FFF711FDB3680BE7013C35
:102CC000A5E730460292FFF709FD17F8013F002BF8
:102CD000D4D0029AB0680A2B02EB070BC2D1411C78
:102CE000B160316801F800A0D6E901108842B9D37B
:102CF0003046CDE90232FFF7F1FCDDE90232B0687F
:102D0000B0E77047002B7FF446AE8CB130220299B9
:102D1000A142BFF440AEB168481CB0603068425474
:102D2000D6E90101814204F1FF3468D2002CEED1D2
:102D3000002430E69BF80040002C3FF433AE0A2C10
:102D4000B0680ED03368421CB2601C54D6E9013022
:102D5000984214D21BF8014F002C3FF423AE0A2CEA
:102D6000F0D13368421CB26003F800A0D6E901300C
:102D70009842E7D33046FFF7B1FCB068E2E730464F
:102D8000FFF7ACFC1BF8014F002CD8D10AE6B16864
:102D90004A1CB26032682D205054D6E9012191427C
:102DA000CBF1000BFFF4F2AD30460393FFF796FC36
:102DB000039BEBE5B1684A1CB26032682B2050548B
:102DC000D6E901219142FFF4E1ADEDE73268591CEB
:102DD000B16002F803A0D6E901239342FFF4E5AE07
:102DE0003046FFF77BFCB368DFE630460393FFF71E
:102DF00075FC039B2022002C7FF413AF23E73046A1
:102E00000393FFF76BFC039B30228FE7F9073FF535
:102E1000B6AD18E79B4631E754790600CDCCCCCC53
:102E200008B514F0F5FC002008BD00BF30B4074D14
:102E3000074C0FCD0FC40FCD0FC40FCD0FC495E8B5
:102E4000070084E8070030BC704700BF64790600C3
:102E500030080020014B93F83800704730080020FC
:102E6000F0B5154E336883B0FBB1144C144F606855
:102E70004FF0FF3201A913F09BFA0028F7D1019B14
:102E8000022BF4D14FF0FF31306813F0B9F900F0A4
:102E9000AFF90546306813F0DDF900F0F7F90346A5
:102EA00039465B6928469847E1E713F037F9306007
:102EB0000028DAD103B0F0BDA8300020BCCB01203F
:102EC000D0CB012030B54FF4027083B012F0CAFEAF
:102ED000034660B1184A19495A604FF40074002043
:102EE0005C8018700A68A2F5007208330A60144CFE
:102EF000144AA3604FF400710325CDE90015124870
:102F0000002113F083FA206028B113F0D5F9606036
:102F100050B103B030BD38210120FEF7DBFB13F0C8
:102F2000CBF960600028F4D13821012003B0BDE85E
:102F30003040FEF7CFBB00BFADDEADDEE4030020C6
:102F4000BCCB0120A0790600612E0100034B58681C
:102F500010B1022113F022BA704700BFBCCB012090
:102F600000B5074B074D5C6883B000230193A04771
:102F7000052201A9286813F01BFA00F0A1F8F6E772
:102F80005C760600AC300020044B1B6823B1044B78
:102F90000021186813F002BA704700BFB03000205B
:102FA000AC30002010B54FF4027082B012F05AFE1F
:102FB00060B11B4B1B4A43604FF4007400214480F6
:102FC00001701368A3F500730830136002214FF4F9
:102FD0000072CDE900210346134A1448002113F082
:102FE00015FA134B1860A8B113F066F9114B18606D
:102FF00058B100F021F808B902B010BD0921012034
:1030000002B0BDE81040FEF765BB38210120FEF795
:1030100061FBEEE738210120FEF75CFBE4E700BF2F
:10302000ADDEADDEE4030020A8790600612F0100CB
:10303000B0300020AC30002008B513F06FF8034A20
:103040000346B0FA80F01360400908BDBCB0002010
:10305000F8B5194E04460D46306840F6213113F09C
:10306000CFF818BB15494B888A885F1CD21BC2F366
:103070000E02954215DA002D0ADD254400E05F1CA2
:1030800014F8012B0B44AC429A71C7F30E03F6D12E
:103090004B800024306813F0DDF8FFF775FF204601
:1030A000F8BD0921FEF716FB0924F3E70124FFF719
:1030B0006BFF2046F8BD00BFBCB00020B43000203C
:1030C0002DE9F041344E82B030684FF0FF3113F0FB
:1030D00097F8E8B9314DDFF8D080AF886C88D8F820
:1030E0000430E41BC4F30E0401A898473CB9002443
:1030F000306813F0AFF8204602B0BDE8F081D8F890
:103100000830019840F62131984730B10324EFE7A9
:103110000124204602B0BDE8F08100F04BF90328FD
:1031200024D0402C1E48A0463B4628BF4FF0400804
:10313000002205EB030C01329CF806C000F801CB1D
:1031400001339045C3F30E03F3DCAB80FFF782FE3F
:1031500098B9144B12489B68414698470028C6D13D
:103160000B21FEF7B7FA0B24AF80C1E70D4B5B696B
:1031700098470028D5D10124BAE7402C21460848B9
:1031800028BF4021FEF7EAF80028B0D01B2100201C
:10319000FEF7A0FA1B24ABE7BCB00020B43000203F
:1031A000C0B00020E87606007C7606000F4B70B4B5
:1031B0001D682B886A885C1C121BC2F30A028A42B3
:1031C00010D91E4669B101444A1E013800E05C1C5A
:1031D00010F8011F2B4482421971C4F30A03F6D17F
:1031E0009EB22E8070BCFFF7B1BE00BF140000205D
:1031F000F0B5204E204F32683B68148852881988F9
:103200005B8883B0A41AC91AC4F30A04ADF8042079
:10321000C1F30A05ADF806301CB9B5B9002003B0FA
:10322000F0BDFFF717FE0028F7D000F02FF8336845
:10323000056901AA2146181D40F2FF73A8473368AB
:10324000BDF804205A8003B0F0BD00F0B3F80328A5
:10325000E4D100F01BF83B6804690DF10602181D6B
:10326000294640F2FF73A0473B68BDF806205A800C
:10327000D5E700BF0000002014000020014B024AE7
:103280001A6070476C08002000100100014B18689C
:10329000704700BF18000020034A044B002808BFF5
:1032A00010461860704700BF6C080020180000200E
:1032B00000201CF081BB00BF08B5FEF72BFD0028E5
:1032C000FBD1052013F056F9F7E700BF00B5054B19
:1032D00083B0186801A9FEF7B1FC019803B05DF84E
:1032E00004FB00BF04B9002010B500231A46224990
:1032F00082B00420FEF76EFB204A1060002834D014
:1033000001224FF0FF31FEF765FC40BB1C491D4810
:10331000FEF7A4FC00BB12F0CDFA4FF4427012F09D
:10332000A1FC60B1184B194A43604FF4407400216E
:10333000448001701368A3F54073083013600621C0
:103340004FF44072CDE900210346114A1148002193
:1033500013F05CF802B010BD15F084FEDBE70E4BF5
:103360000E4A0F483E210EF011FF0E4B0B4A0C483F
:103370003B210EF00BFF00BF647A060004B9002069
:1033800040420F00CD320100ADDEADDEE40300208F
:10339000507A0600B9320100AC770600587A060070
:1033A000E0790600D4790600014B1870704700BF21
:1033B00008B90020014B1878704700BF08B90020F9
:1033C00038B511F1100418D001F1180012F04AFCC0
:1033D000034690B10A480B4A5C80002119705A607C
:1033E000026803F11805121B40F20314026003F196
:1033F00008001982DD609C8238BD002038BD00BF06
:10340000E4030020ADDEADDEB9B10829A1F108006A
:1034100014D010B5104A446811F8083C94420FD1FA
:10342000022B13D80D49448851F823202244BDE8CB
:10343000104041F8232012F017BC084612F014BCCB
:10344000074B084A0848C9210EF0A0FE074B054A61
:103450000548CA210EF09AFEADDEADDEE403002081
:103460006C7A0600B87C0600847A0600EC7A0600C6
:10347000012800D0704730B50D4A117C83B041B1AE
:103480000C4A022310680093694612F0DDFD03B078
:1034900030BD11460346084D0848094C41F8080F55
:1034A00008481374C2E9005400F05AFDE8E700BF71
:1034B0001C000020C8BB0020D0CB0120CC7C060023
:1034C000CCCB012014B90020F0B56A4B6A496B4C93
:1034D000196019466A486B4A41F8080F87B00127FE
:1034E000201D5A601F7400F03BFD201D01F09AF86A
:1034F000204604F51F7650F8701B0EF027FE21467B
:1035000004F1400051F8042B03F00AFC2268304615
:10351000211D02F02FF92246019652F8743B0092C9
:10352000A6F50F71221D04F178000BF00DFF0028A5
:1035300040F08280206802A930F0B6FF05460028DE
:103540006CD1049813F0A8F8D4F89830002800F053
:10355000818083F838704C4B00962268A3F170018B
:1035600003F5B8700EF09CFC0546002879D121685F
:1035700046480EF07BFD454900952B46226801F137
:10358000CC0004F085FD0546002866D13F4922683D
:1035900001F5247005F0CCF80546002865D10246F7
:1035A0003B493C4803F0ECFBDDE90243220E42EAD2
:1035B0000322284662F30700220C42EA034262F328
:1035C0000F20220A42EA03621E0E62F317402A46C7
:1035D00066F307021E0C304964F31F6066F30F2286
:1035E0001C0A64F31742059CC1F81300012063F321
:1035F0001F620880270E200A260C049BC1F80F20AA
:1036000048768C762348CF750E7634228D70C1F8BB
:103610002F3003F0BBFB284607B0F0BD1F48204BFE
:103620002049C01AC008000440F001002A46FEF7F5
:10363000E7FC284607B0F0BD0546194B17481A4964
:10364000C01AC008000438432A46FEF7D9FC2846B1
:1036500007B0F0BD83F838007DE71048104B1349E0
:10366000DFE70E480E4B1249DBE70C480C4B1149C3
:10367000D7E700BF1C000020D0CB012010B90020EC
:10368000CC7C0600CCCB012084B9002014B90020EA
:103690003000002050B90020F8BF00202812070099
:1036A000D8110700347B0600087B0600887B0600E3
:1036B0005C7B0600B47B060070B51B4B002482B017
:1036C00021464FF40062054618481C800EF026FE85
:1036D000174B41F608001C7412F0C4FA034658B1A7
:1036E000144A15491C704FF4C05058805A600A683B
:1036F000A2F5C05208330A60104C114AA3604FF47F
:10370000C0500326CDE9000629460E4812F07EFE81
:10371000206008B102B070BD3821012002B0BDE8C0
:103720007040FDF7D7BF00BFCCCB0120D0CB01202C
:103730001C000020ADDEADDEE4030020B8BB00209D
:10374000EC7B0600493701002DE9F047404D2B681E
:1037500082B0002B63D03F4C3F4F0023E36000F06A
:10376000ABFA3B68002B54D03C4830F091FB00286A
:103770004BD102463A493B4800F0D4FA30BBFFF740
:10378000A3FE394EE368002232748BB9DFF8FCA047
:10379000DFF8FC90B04628684FF0FF32694612F01F
:1037A0007DFC10B9009B022B1CD0E368002BF2D0EB
:1037B0000223E360E368022B05D1012012F0E0FE52
:1037C000E368022BF9D002B0BDE8F087274B284A06
:1037D00028499B1ADB081B04024643F00100FEF750
:1037E0000FFCCEE7337C012BDFD14FF0FF3138687F
:1037F00012F006FD404600F035F900281DDC0B30C4
:103800001BD0386812F026FDCFE7184B184A1A492A
:10381000DFE712F083FC38600028A5D1B1E7174834
:103820000522082112F028FB2860002893D1144BB0
:10383000144A1548BF210EF0A9FC4FF40062002184
:1038400050460EF06BFD0023A9F80030D9E700BF09
:10385000C8BB0020B8BB0020A830002010B9002051
:10386000C07C060014B900201C00002028120700AC
:10387000D8110700807C0600607C0600CCBB0020CD
:10388000F07B0600A47C0600007C0600D0CB012063
:10389000CCCB012070B51A4C1A48251D12F0A0FEA1
:1038A000284600F07BFA184B002604F178001E74BD
:1038B0000BF038FD04F5F2700EF066FB0EF0E8FB3D
:1038C00004F1D00004F028FC04F51F7001F0A2FF01
:1038D00004F1400003F052FA32462068314630F0DD
:1038E0001FFB204650F8701B0EF030FC284600F0FD
:1038F00055FA206830F0E0FABDE8704000F002BAF6
:1039000010B90020B8BB00201C00002038B52F4C97
:1039100004F178000BF006FD04F5F2700EF034FBB4
:103920000EF0B6FB04F1D00004F0F6FB04F51F70B6
:1039300001F070FF04F1400003F020FA002211466C
:10394000206830F0EDFA204650F8701B0EF0FEFBB8
:10395000201D00F023FA206830F0AEFA204630F047
:1039600097FA054600BB1A49201D2A4600F0DAF9ED
:1039700048B9FFF7A9FDB0FA80F1BDE83840154815
:10398000490903F007BA144A144B15499B1ADB087E
:103990001B04024643F00100FEF732FB29460D48A6
:1039A000BDE8384003F0F6B90B4B0C480D49C01A7E
:1039B000C00800042A4640F00100FEF721FBBDE8E4
:1039C00038400448002103F0E5B900BF10B90020D9
:1039D000C07C060050B90020D8110700281207004B
:1039E000807C0600607C06000020704741607047C4
:1039F00038B50B4D2968044669B1406838B1836811
:103A00002BB199421A6804D01346002BF9D100F06B
:103A100019FA00232B60034A00231380636038BD2A
:103A200030C0002034C00020F8B507460C4D78683F
:103A300000F0AEFD064690B13446218960686B689F
:103A400098472468002CF8D131467868224600F067
:103A500053FF786800F09CFD06460028ECD1F8BDC5
:103A6000F00300202DE9F04FD0E900B285B01388B3
:103A700002900393002B37D0DFF82C91DFF82C81D4
:103A8000DFF82CA11C46D9F80070002F65D0B8F8DB
:103A90000050032D2CD8C5F10406A6427868A8BFB3
:103AA00026465946324628440EF02AFC7968B2B2BE
:103AB000C9781544ADB2A41A0A1D9542B344A8F8BA
:103AC0000050A4B239D09AF80020002A30D03449EE
:103AD000344B08689A686421904700284ED101222F
:103AE0008AF80020002CCED1039805B0BDE8F08FF5
:103AF0007868C6780436761BA642A8BF2646B2B2BE
:103B000059462844164601920EF0FAFB7968019A4C
:103B1000C9783544ADB20431A41B8D42A8F80050D9
:103B2000A4B2934409D0002DCDD1002CABD1DBE75A
:103B30001C4B1B485A689047D1E7029B3D81D868CF
:103B4000394600F09FFB0022C9F80020A8F80020A9
:103B50008AF80020002C96D1C6E7029B3A46D86826
:103B600040F2031100F062F90746C9F8000000288E
:103B70008DD16FF0100005B0BDE8F08F029BD9F831
:103B80000010D86800F05EF900236FF00A00C9F851
:103B90000030A8F800308AF8003005B0BDE8F08F9A
:103BA00038C000207C76060030C0002034C00020E1
:103BB0002CC00020DFF8F4C02DE9F04FBCF8005015
:103BC00040F2FE744E19A64283B05ADC00295ED042
:103BD0001488DFF8D0E0045D0EF805401488013445
:103BE0001C40012914801DB20FD90123BCF80060CC
:103BF000075D0EEB03040133A755148801342C40F4
:103C00009EB2A4B2B1421480F0D8BCF80020244C7B
:103C1000244D6378A678E778DFF89490DFF894B0C5
:103C20000A4471440191ACF80020A04608E00FF06E
:103C300041F933463E4670B3019AAA4227D057460F
:103C400015F801AB2370184B667013F80AC0A77003
:103C50000CF0030CBCF1020F08BFAAF12002494688
:103C600008BF5FFA82FA404684F803A00FF022F9F9
:103C7000034659464046002BD9D1052003B0BDE884
:103C8000F08F0020ACF8000003B0BDE8F08F0120F9
:103C900003B0BDE8F08F062003B0BDE8F08F00BF91
:103CA0003CC00020D0CB0120BF850600CCCB01203A
:103CB000E07C0600D87C060008B511F047FD38B955
:103CC0000C4831F059F978B91BF0ACFE30B908BD99
:103CD000094B0A4A0A4819210EF058FA064B074ABE
:103CE00007481E210EF052FA034B044A04481B21D8
:103CF0000EF04CFA58030020AC7706005C7D0600FD
:103D0000E87C060008B51BF0B9FF31F053F9BDE8B7
:103D1000084011F0BDBD00BF40F2011200238262D5
:103D200083857047002932D0F8B5044617460E4601
:103D300012F0F4F9606300282CD0012240F2011344
:103D400084F82420A3623368266000251B6884F869
:103D50002070052165603046A5602561A5616584F8
:103D6000A5852A469847014640B183890560042B02
:103D70008560857305D9042383730381E161002085
:103D8000F8BD206803685B6898472946F6E76FF03E
:103D90000F0070476FF01000F8BD00BF38B5044643
:103DA000806920B303685B6898470023A568A36116
:103DB0005DB12B4619469A7B2D6812F0020F24D074
:103DC000D3E904209047002DF3D100232569A36097
:103DD0005DB12B4619469A7B2D6812F0020F1CD05C
:103DE000D3E904209047002DF3D100232361E1693A
:103DF00019B1206803685B6898470023C4E9003361
:103E0000606BBDE8384012F0C9B912F0010FCFD194
:103E1000206803685B689847CAE712F0010FD7D1A2
:103E2000206803685B689847D2E700BF00680368B2
:103E300010B51B681446984718B1002384730360BB
:103E4000836010BDC9B138B505460C4623461946F6
:103E50009A7B246812F0020F05D0D3E90420904722
:103E6000002CF3D138BD12F0010FF9D12868036896
:103E70005B689847002CE9D1F4E7704743680BB3BF
:103E80008B4202D106E0994205D01A461B68002BEE
:103E9000F9D17047021D1B681360416800224284FB
:103EA00089B110B40124D1E900131B88C3F30323A3
:103EB00004FA03F31A4392B20029F4D15DF8044BDB
:103EC000428470477047704701B370B4D1E901561E
:103ED0002C88012EC4F303240DD9012301E0B34241
:103EE00009D035F83320C2F30322944203F10103D1
:103EF000F5D070BC7047428C45680D60012303FA11
:103F000004F414434484416070BC7047704700BFA0
:103F1000006808B5036800221B68984718B10023A1
:103F200003608360837308BDC9B138B505460C468C
:103F3000234619469A7B246812F0020F05D0D3E974
:103F400004209047002CF3D138BD12F0010FF9D1B5
:103F5000286803685B689847002CE9D1F4E770474C
:103F600010B5846944B90A68034608469961194640
:103F700013689847204610BD6FF0050010BD00BFC4
:103F800038B504468069002835D003685B689847D7
:103F90000023A568A3615DB12B4619469A7B2D6865
:103FA00012F0020F17D0D3E904209047002DF3D16F
:103FB00000232569A3605DB12B4619469A7B2D68C5
:103FC00012F0020F0FD0D3E904209047002DF3D157
:103FD0000020206138BD12F0010FDCD12068036899
:103FE0005B689847D7E712F0010FE4D120680368B7
:103FF0005B689847DFE76FF00A0038BD53684901F6
:1040000070B519705368144600225A70636862894B
:104010009A70638962681B0AD37005464FF0FF31BE
:10402000406B12F0EDF82B695BB16B691C60686B3B
:104030006C6112F00FF9A8690368BDE870409B68D5
:1040400018472C61F3E700BF2DE9F04106460F4603
:10405000406B4FF0FF31154612F0D2F8B369002BD8
:104060002AD0002D36D06C89A97B780B431EDBB299
:104070004FEA172C002835D0022B73D92A46134655
:104080001268002AFBD13269002A53D07269F469A0
:1040900015607361002C52D0706B12F0DBF8B069C0
:1040A0000368BDE8F0419B68184712F0010F03D187
:1040B000306803685B689847002D00F081802B46CC
:1040C00019469A7B2D6812F0020FEED0D3E9042036
:1040D0009047F1E7F569002D77D00023F361A97BC4
:1040E0006C89C2E72B4607E019891A68641AA4B2E2
:1040F000002AC8D0917B13464A0704F10407F3D580
:10410000FF2C5A6894BF002101214CEA0111117063
:104110005A6850705A68FF2C28BFFF2494705A6860
:10412000D0701C891A683C1BA4B2002AE2D1326903
:10413000002AABD1F46935617361002CACD13068D1
:10414000036805211B6822469847014640B18389D0
:104150000460042B846084734BD90423837303812C
:10416000F16199E72B464FF0000E07E019891A68B4
:10417000641AA4B2002A86D0917B13464A0704F140
:104180000400F3D5FF2C5A6894BF002101214CEAAA
:10419000011111705A6857705A6882F802E05A6823
:1041A000FF2C28BFFF24D4701C891A68041BA4B2FA
:1041B000002AE1D167E73068036829465B689847C1
:1041C000706BBDE8F04112F045B8306803682A46CC
:1041D0001B680521984705460028F1D083890024F3
:1041E000042B046084608473E5D904218173018108
:1041F0003BE7306803685B6898472146B0E700BF3B
:10420000F8B505460E46406B4FF0FF31174611F0EA
:10421000F7FFAB69002B30D0EC69B4B10023EB6140
:1042200063681F7122896389686B013201332281BF
:10423000638112F00FF8C6F30B012246284641F4C1
:104240008041BDE8F840FFF7FFBE286803682246BA
:104250001B6805219847044678B182890023042A07
:1042600003608360837303D9042383730381D7E7D7
:104270002868036821465B689847686BBDE8F8408A
:1042800011F0E8BF0A89032A2DE9F84F0C460546CC
:1042900003D94B681978BF2917D9234619469A7B49
:1042A000246812F0020F06D0D3E904209047002CB6
:1042B000F3D1BDE8F88F12F0010FF8D12868036838
:1042C0005B689847002CE8D1F3E7B2F5827FE4D22F
:1042D000A27B42F00402A273197848093CD0421E26
:1042E000022A00F2A980A94E5A7806EA012616434E
:1042F000011FCAB2012A40F2CA80DA78628103281B
:1043000000F2CD8040F201100021A862A98593F847
:104310000080AF68C8F30018002F00F0A380786811
:1043200001784B0900F02D8103F1FF3CBCF1020F35
:1043300000F22581DFF854C243780CEA01210B43D7
:10434000B34240F083807989EB680A4400211C6005
:10435000EC607A81618187E0D8789A788B4EAF687B
:1043600042EA0022628106EA012667B13B4619460D
:104370009A7B3F6812F0020F54D0D3E90420904793
:10438000002FF3D1636895F8282085F829201B7841
:10439000AC60C3F3001383F0010385F82830EC60B0
:1043A00095F820804FEA56394C46B8F1000F00F0DE
:1043B00098806B6823B3C6F3032E06F03F0C596850
:1043C0000A88C2F30322964513D19F688FB108462D
:1043D000002206E0B24500F0A580974200F10800F7
:1043E00007D031F832A00AF03F0BE34502F1010299
:1043F000F0D91B68002BE2D1013C022C40F2B280C4
:10440000AC685CB1234619469A7B246812F0020F0F
:1044100035D0D3E904209047002CF3D10023AB60C2
:10442000BDE8F88F12F0010FAAD1286803685B6815
:104430009847002F9AD1A5E7460359E712F0010FDC
:1044400003D1286803685B6898475FB13B4619460B
:104450009A7B3F6812F0020FF0D0D3E90420904716
:10446000002FF3D1C5E90244236823B11A461B6823
:10447000002BFBD1EA60B8F1000F91D019E712F0E0
:10448000010FBED1286803685B689847B9E7DF78F9
:104490009A78032842EA072262817FF633AFC9B2D5
:1044A00001293FF67DAF40F201120023AF68AA62F6
:1044B000AB855FB13B4619469A7B3F6812F0020F0D
:1044C00048D0D3E904209047002FF3D195F82080FD
:1044D0004FEA5639C5E902444C46B8F1000F7FF463
:1044E00068AF09F1FF33022B3FF663AF95F8243034
:1044F000FF2B3BD06B68002B7FF45DAFA9F1020965
:10450000B9F1010F7FF67CAF6B8CC6F30322D34069
:1045100013F0010F314614BF082207222846FFF787
:104520006FFE6DE74768DB68AA6831462846B847E2
:1045300000283FF465AF95F82030002B7FF460AF82
:10454000013C022C3FF65CAF314602222846FFF7C1
:1045500057FE55E712F0010FABD1286803685B687E
:104560009847A6E7B8F1000FC8D049E7B6F5005F55
:10457000C0D0314601222846FFF742FE40E75B03E8
:10458000DEE6024B03EA0123DAE600BF00EFFFFF9D
:1045900038B504464FF0FF31406B11F031FE25690C
:1045A000002323612A463AB113682BB1997B49074E
:1045B00007D5002123611160606B11F04BFE284686
:1045C00038BD1A46EFE700BF90F82400704700BFDF
:1045D00030B589B090F820200290002304460520D1
:1045E000CDE90333CDE905338DF81E30ADF81C005D
:1045F000B2B994F82430FF2B12D08B420D460FD065
:1046000084F8241001220DF1070102A88DF807504B
:1046100000F0DEF9039A204646F20101FFF714FD8F
:1046200009B030BD2DE9F04190F8207088B0002429
:104630004FF00508CDE90344CDE9054402908DF81B
:104640001E40ADF81C8017B108B0BDE8F081012212
:10465000054680F824200DF1070102A88DF80720F7
:1046600000F0B6F9686B039E4FF0FF3111F0C8FD02
:10467000AB69002B42D0002E4CD07389B27B304600
:104680000127002406E0028901689B1A9BB2D9B178
:104690008A7B0846520703F1040CF4D54268FF2BCD
:1046A0008CBF70216021117042685770426894700D
:1046B000FF2B426828BFFF23D37003890168ACEB4E
:1046C00003039BB20029E3D12B69002B44D06B6913
:1046D0001E60EC696861002C40D0686B11F0BAFD77
:1046E000A86903689B68984708B0BDE8F08112F09C
:1046F000010F03D1286803685B68984746B33346C7
:1047000019469A7B366812F0020FF0D0D3E90420E4
:104710009047F3E7EE691EB1EF61B27B7389AEE7B4
:104720002868036832461B6841469847064678B1B8
:1047300083890460042B8460847304D90422234693
:10474000827302819BE72868036831465B6898475B
:10475000686B11F07FFD77E72E61BAE72868036880
:1047600005211B6822469847014640B183890460B1
:10477000042B8460847304D9042383730381E96167
:10478000ABE7286803685B6898472146F7E700BFF6
:104790002DE9F04190F8207088B000244FF0050812
:1047A000CDE90344CDE9054402908DF81E40ADF8F3
:1047B0001C8017B108B0BDE8F08105460B46012208
:1047C0000DF1070102A88DF8073000F001F9686BC0
:1047D000039E4FF0FF3111F013FDAB69002B42D067
:1047E000002E4CD07389B27B30463127002406E07E
:1047F000028901689B1A9BB2D9B18A7B084652078D
:1048000003F1040CF4D54268FF2B8CBF7B216B2194
:1048100011704268577042689470FF2B426828BF3D
:10482000FF23D37003890168ACEB03039BB200291B
:10483000E3D12B69002B44D06B691E60EC69686181
:10484000002C40D0686B11F005FDA86903689B68D7
:10485000984708B0BDE8F08112F0010F03D1286835
:1048600003685B68984746B3334619469A7B3668B7
:1048700012F0020FF0D0D3E904209047F3E7EE697D
:104880001EB1EF61B27B7389AEE7286803683246D8
:104890001B6841469847064678B183890460042B1B
:1048A0008460847304D904222346827302819BE7C7
:1048B0002868036831465B689847686B11F0CAFC4A
:1048C00078E72E61BAE72868036805211B6822464D
:1048D0009847014640B183890460042B8460847347
:1048E00004D9042383730381E961ABE72868036873
:1048F0005B6898472146F7E770B50546164661B1F3
:104900000C46234619469A7B246812F0020F06D003
:10491000D3E904209047002CF3D156B970BD12F0B2
:10492000010FF8D1286803685B689847002CE8D12C
:10493000F3E72C695CB1234619469A7B246812F090
:10494000020F07D0D3E904209047002CF3D10023B5
:104950002B6170BD12F0010FECD1286803685B6811
:104960009847E7E738B50446C06810B9656815B1DF
:1049700038BDC0B238BDA18AA27D2068042938BFE5
:104980000421FFF753FA014680B18389032B07D92D
:10499000837B042213438B738A602846616038BD91
:1049A0002068FFF74FFA6560022038BD6060022082
:1049B00038BD00BFF0B40C4606460FCC354637690B
:1049C0000FC594E8030085E803003761F0BC704729
:1049D0002DE9F0470546002A3CD03E4F8946164651
:1049E0004FF0000A4FF00408002D58D0E868002866
:1049F00038D16B68002B3AD05B89A868A7FB0324E9
:104A0000E409C4EB04241C1B31D0838901898B4247
:104A100047D0C4F1FF020C461C1B944228BF144629
:104A2000002C53D0D5F804C0D0F804A0BCF80A205C
:104A3000B44228BF3446A3B21A440B44ACF80A204F
:104A40008A4403814946224650460DF059FC361BE4
:104A5000A144C9D1286918B103780133037000203B
:104A6000BDE8F087C0F10004ECDBBDE8F087AA7D6B
:104A7000A98A2868FFF7DAF940B38389032B21D983
:104A8000827BC0F8088042F0040282736A68BAB17F
:104A9000AA6810600421A8600C46FF22BCE7042429
:104AA000D0E7AA7DA98A2868FFF7C0F970B1AA6883
:104AB000018983891060C4F1FF02A8600C46ABE74E
:104AC0006860E7E701462868FFF7BCF90220E86064
:104AD000C6E700BF81808080F0B5074683B00E46F0
:104AE00000230DF1070101223D468DF80730FFF745
:104AF0006FFF0FCD34460FC4BB681A895B6895E819
:104B00000300013A134484E80300336103B0F0BDAD
:104B10002DE9F8430689D0F80CE0B64551D091460E
:104B2000002A4ED005460F46B44608464FF000080E
:104B30002C68002C33D023899E4237D36C602468C4
:104B40002C60AEEB0303EB60A5F80880002C31D09D
:104B50002389A17B11F004011FBFEA6804215218C8
:104B6000EA600E468C469A1B4A4528BF4A4663684F
:104B70009444A5F808C01944A9EB020984180DF063
:104B8000BFFBB5F808C0D5F80CE0E64566460AD08C
:104B9000B9F1000F07D020462C68002CCBD1764508
:104BA000B446C5D10446E01BBDE8F883002ED0D042
:104BB0003146D8E71FFA88F69E467645B446B7D107
:104BC000F0E70020BDE8F883F0B40389C5689D4292
:104BD00031D019B30E46002704683CB322899342B2
:104BE0001FD3446024680460AD1AC5600781E4B136
:104BF0002289A47B14F004041EBF04350424C5607C
:104C00002346121BB24228BF324613449BB2AB422A
:104C10000381A6EB02060BD0002EDDD10846F0BCC6
:104C20007047002BE5D01C46EBE72346AB42D3D1BF
:104C3000881BF0BC70470020F1E700BF002850D06F
:104C4000F8B50446C06800282ED11746002A5DD06A
:104C50000D4600295AD0636843B35B89324EA16880
:104C6000A6FB0326F609C6EB06269E1B1ED08B89E3
:104C7000B1F808C0634536D0C6F1FF066046181A81
:104C8000B04228BF3046002848D066684A68748918
:104C9000854228BF0546ABB21C44624463443A6077
:104CA000284674810B81F8BD4042F8BDA18AA27DDF
:104CB0002068FFF7BBF8014600282FD08389032B1B
:104CC00029D9827B42F004028273626804208860E2
:104CD000D2B1A26811604FF0040CA1606046FF26BB
:104CE000CDE704207047A18AA27D2068FFF79EF8D7
:104CF000014698B1B0F808C0A26883891060C6F177
:104D0000FF06A0606046BAE76160E4E70423E36061
:104D10006FF00300F8BD2068FFF794F80223E3600A
:104D20006FF00100F8BD00BF8180808060B159B193
:104D3000436853B130B45A890D8984682A4421608C
:104D4000816030BC5A8170477047C0E901117047DB
:104D5000002832D0002930D0002A2ED0F0B40568C7
:104D60000346C5B106892C89A64217D3C0685D6089
:104D70002D681D60001B0024D8601C815DB12C894A
:104D8000AF7B17F004071FBFD8680427C019D8608D
:104D90003E46384606E00020F0BC7047002EEFD0BB
:104DA00030463746201A88426C6828BF08460644B9
:104DB000274417601E81F0BC70470020704700BF79
:104DC0002DE9F041B0F808C0C768674582B01DD032
:104DD0001546884601220DF107011E460446FFF7DD
:104DE00097FE9DF807202A70B2420FD82189E36808
:104DF0005B1A9A420AD841462046FFF789FE2B7873
:104E0000834203D1002002B0BDE8F081032002B04C
:104E1000BDE8F08170B5FF2A82B0054603D90223B0
:104E2000C36002B070BD14460E4601220DF10701A9
:104E30008DF80740FFF7CCFD224631462846FFF7A4
:104E4000C7FD02B070BD00BFF0B50389C6689E42C1
:104E500083B00D4619D0571E0DF1070101220446FB
:104E6000FFF756FE9DF80760B7420ED32289E3682C
:104E70009B1A9E4209D8204632462946FFF748FE33
:104E8000864202D12E44002001E02E46032000235A
:104E900033702B78002B08BF032003B0F0BD00BF98
:104EA00070B50D4682B006460846002114460DF046
:104EB000D7F900B1441BFF2C03D90223F36002B0E1
:104EC00070BD0DF10701012230468DF80740FFF754
:104ED0007FFD224629463046FFF77AFD02B070BDBD
:104EE000F0B5C36805895B1B012B83B056D90D460D
:104EF00016460DF1070101220446FFF709FE9DF851
:104F000007302B702033DBB2022B30D82389E168C5
:104F1000CA1A012A42D9994229D022684FF0000CBE
:104F20000AB317899F423CD8626012682260C91B8D
:104F3000E160A4F808C0C2B11789937B13F00403A1
:104F40001EBF04310423E1601846FB1A012B94BFF5
:104F5000C318431C9BB28B42238108D0874206D1E1
:104F60002268002ADDD1E16822899142FBD10DF14E
:104F7000070101222046FFF7CBFD9DF80720327084
:104F80002189E3685B1A9A4208D82B782033DBB278
:104F9000022B8CBF0020042003B0F0BD032003B01F
:104FA000F0BD2089E1680028C7D00346CDE700BFE7
:104FB0002DE9F041164652898EB00024042A049649
:104FC000059605460F460792ADF818401ED998463B
:104FD000042208A904A8FFF79BFDD8F80040089A0E
:104FE0001CB93BE02468002C38D0A3689342F9D167
:104FF0002369D8F80800D3E90053009332462346CA
:1050000039466C69A0470EB0BDE8F081CDE908547F
:10501000CDE90A4440F20312ADF834200DF10F013E
:1050200008A803230C948DF8364001228DF80F3028
:10503000FFF7CEFC0DF10F0108A801228DF80F40FB
:10504000FFF7C6FCC7F30B012846099A41F48041DB
:10505000FEF7FAFF20460EB0BDE8F081002440F2D2
:105060000310ADF83400CDE90854CDE90A440DF140
:105070000F01112301220C948DF8364008A8D5E7C2
:105080002DE9F04F54898DB04FF000090292039240
:10509000059480460F469A46ADF81090002C7CD1BE
:1050A0001C684FF0FF36002C00F0DC804FF0000948
:1050B000246809F10109002CFAD1013600F084803E
:1050C000FF26DAF80C30002B00F0C1809D7B002D0C
:1050D00000F0B98003F10B02154402E0954200F0A4
:1050E000B28012F8014FB442F8D106AD0DF1040BB5
:1050F0000023594640F20314012228460B93CDE9C0
:105100000733CDE909338DF80430ADF82C40CDF8E4
:105110001880FFF75DFC5946284601228DF804905F
:10512000FFF756FCDAF80040B9F1000F29D0FF2E46
:1051300067D0237BB34203D02468237BB342FBD1E7
:105140002369A068D3E90021D3699847A368019334
:105150008246042259462846FFF73AFC237B8DF805
:105160000430012259462846FFF732FC01225946F5
:1051700028468DF804A0FFF72BFCB9F1010924683B
:10518000D7D1C7F30B01079A41F480414046FEF79F
:105190005BFF00200DB0BDE8F08F012206A902A838
:1051A000FFF7B6FCDAF800409DF81860002C72D0CA
:1051B000FF2E3FF47BAF237B2468B34208BF09F185
:1051C0000109002CF7D17CE706AD0DF1040B40F28C
:1051D00003135946012228460B94CDE90684CDE9F4
:1051E00008448DF804400A94ADF82C30FFF7F0FB2A
:1051F0005946284601228DF80490FFF7E9FBDAF8BA
:1052000000402369A068D3E90021D3699847A368C7
:1052100001930646042259462846FFF7D9FB237B13
:105220008DF80430012259462846FFF7D1FB0122B0
:10523000594628468DF80460FFF7CAFBB9F1010909
:105240002468DED19DE79B68002B7FF43FAFDAF83E
:105250001030002B7FF449AF394640460522FEF757
:10526000CFFF96E701A940F2031306A801220B9491
:10527000CDE90684CDE908448DF804400A94ADF8E0
:105280002C30FFF7A5FB01A906A801228DF80440E8
:10529000FFF79EFB75E7A14613E700BF2DE9F04F2E
:1052A000046889B0002C40D080460E460546002791
:1052B0004FF00A0903E025462C68002C35D02369FD
:1052C000B342F8D123682B60D8F808B0A3680397DD
:1052D00004220DEB02014FF0010A02A8CDE9013BC7
:1052E000CDE904770697ADF81C908DF81E70FFF796
:1052F0006FFB524601A902A88DF804A0FFF768FBD6
:10530000524601A902A88DF80470FFF761FB5846C8
:10531000039A46F20211FEF797FE63682046002BBF
:10532000CAD098472C68002CC9D109B0BDE8F08FCD
:105330002DE9F041558986B00024032D0292039295
:105340000595ADF810401BD904221E460746884635
:1053500002A80DEB0201FFF7DBFB3468019A14B9D8
:1053600015E024689CB1A5689542FAD12369B0681C
:10537000D3E900134C684146A04706B0BDE8F08170
:105380000322FEF73DFF204606B0BDE8F081384617
:1053900041461122FEF734FF0020EEE72DE9F041EF
:1053A000558986B00024032D029203920595ADF82D
:1053B00010401CD904221E4680460F4602A80DEB61
:1053C0000201FFF7A5FB3468019A14B91FE02468B5
:1053D000ECB1A5689542FAD1236919688C686CB163
:1053E0005B68B0683946A04706B0BDE8F08103228B
:1053F000FEF706FF204606B0BDE8F081404639467C
:105400000222FEF7FDFE204606B0BDE8F0814046D0
:1054100039461122FEF7F4FE0020E5E72DE9F041C0
:10542000558986B00024032D029203920595ADF8AC
:10543000104026D904221E4680460F4602A80DEBD6
:105440000201FFF765FB3468019A14B920E0246873
:10545000F4B1A5689542FAD123694BB11968CC68BB
:1054600034B15B68B0683946A04706B0BDE8F0814A
:10547000404639460222FEF7C3FE002006B0BDE8D2
:10548000F0810322FEF7BCFE204606B0BDE8F081A5
:10549000404639461122FEF7B3FE0020E5E700BF83
:1054A0002DE9F04155898CB00024032D029203921E
:1054B0000595ADF810401AD91E46042280460F46C5
:1054C00002A806A9FFF724FB3468069A14B915E070
:1054D00024689CB1A5689542FAD12369B068D3E9E4
:1054E00000138C693946A0470CB0BDE8F081032257
:1054F000FEF786FE20460CB0BDE8F08140F20310B6
:10550000002411230DF107010122ADF82C0006A89B
:105510008DF80730CDE90684CDE908440A948DF86A
:105520002E40FFF755FA0DF10701012206A88DF86C
:105530000740FFF74DFAC7F30B014046079A41F4C5
:105540008041FEF781FD2046CEE700BF2DE9F04106
:1055500055898CB00024032D029203920595ADF875
:1055600010401AD91E46042280460F4602A806A9FA
:10557000FFF7CEFA3468069A14B915E024689CB196
:10558000A5689542FAD12369B068D3E900130C6A83
:105590003946A0470CB0BDE8F0810322FEF730FE8B
:1055A00020460CB0BDE8F08140F203100024112326
:1055B0000DF107010122ADF82C0006A88DF8073087
:1055C000CDE90684CDE908440A948DF82E40FFF712
:1055D000FFF90DF10701012206A88DF80740FFF73A
:1055E000F7F9C7F30B014046079A41F48041FEF7F3
:1055F0002BFD2046CEE700BF2DE9F0471E7D88B089
:105600001F4600245389049205920793ADF8184071
:10561000002E40D1042B37D904228246884604A8A4
:1056200003A9FFF775FA03A904A80122DDF80C907D
:10563000FFF76EFAFE689DF80C30CEB1B57BA5B1D0
:1056400006F10B02154401E0AA420ED012F8014FF8
:105650009C42F9D1D6E900420092B86824684A46D3
:105660004146A04708B0BDE8F087B668002EE5D1F6
:105670003E69002EEED1504641460522FEF7C0FDA0
:10568000304608B0BDE8F0870322FEF7B9FD30468A
:1056900008B0BDE8F0870122FEF7B2FD204608B051
:1056A000BDE8F0872DE9F041164652898EB00024FE
:1056B000042A0496059605460F460792ADF8184051
:1056C0001ED99846042208A904A8FFF721FAD8F8A1
:1056D0000040089A1CB93BE02468002C38D0A3682D
:1056E0009342F9D12369D8F80800D3E90053009315
:1056F000224633462C693946A0470EB0BDE8F081FA
:10570000CDE90854CDE90A4440F20312ADF8342043
:105710000DF10F0108A803230C948DF836400122E7
:105720008DF80F30FFF754F90DF10F0108A8012291
:105730008DF80F40FFF74CF9C7F30B012846099A83
:1057400041F48041FEF780FC20460EB0BDE8F081B8
:10575000002440F20310ADF83400CDE90854CDE93F
:105760000A440DF10F01112301220C948DF83640EB
:1057700008A8D5E730B5044683B00E4D019100234B
:10578000C4E901212360E36008462361636129467F
:10579000EC60FEF799FB0198EC6105F11001FEF752
:1057A00093FB0198EC6205F1200103B0BDE83040A5
:1057B000FEF78ABB44000020F0B589B04FF00A0C18
:1057C000054600240E46174601A902A80422ADF89A
:1057D0001CC0CDE90165CDE903441E46CDE9054471
:1057E0008DF81E40FFF7F4F801A902A801228DF8F8
:1057F0000470FFF7EDF801A902A801228DF80460FA
:10580000FFF7E6F8039A284646F20211FEF71CFC61
:1058100009B0F0BD2DE9F04FC5688BB00646002DEC
:105820005AD04FF0000A57463468AB68F360002C3A
:1058300040D0B1464FF00A0B04E0A146D9F8004031
:10584000002C37D02369AB42F7D12368C9F8003068
:10585000B36804934FF00108042203A9019304A83C
:10586000A3680393CDE9067705970897ADF824B0B0
:105870008DF826A0FFF7ACF8424603A904A88DF8DE
:105880000C80FFF7A5F8424603A904A88DF80CA0E8
:10589000FFF79EF8019B059A184646F20211FEF7A3
:1058A000D3FB63682046002BC8D09847D9F8004046
:1058B000002CC7D1082DA5F1080017D015F8082C29
:1058C0000D4C418854F822300B4444F8223010F03B
:1058D000CBF9F568002DA7D1002333607360B36066
:1058E000F360336173610BB0BDE8F08F10F0BCF969
:1058F000F568002D98D1EFE7E4030020006810B1AF
:1059000083688B42FAD17047F0B40468059E07465D
:1059100014B907E024682CB1A568A942FAD1022085
:10592000F0BC70473C6914B12068834208D0FC6821
:105930001CB9F4E7A468002CF1D02568AB42F9D17A
:1059400000200123F060B06130603273F376049A76
:105950003B683360C6E90121C6E904403E60F0BC03
:10596000704700BF10B5046914B123689A4207D08C
:10597000C46814B918E0A468B4B123689A42FAD193
:1059800003681BB910E018461B686BB19A688A421D
:10599000F9D11A69A242F6D1D3E9001201600AB125
:1059A00018469047002010BD6FF00A0010BD00BFE0
:1059B00030B4046814B90DE024685CB1A568A9424C
:1059C000FAD121690968914207D103B11C60002016
:1059D00030BC7047112030BC7047022030BC70478B
:1059E000036883B1FF294FF0000007D01A7B1B68C2
:1059F0008A4208BF0130002BF8D170471B68013084
:105A0000002BFBD170471846704700BF022B64D8AB
:105A10002DE9F8450F46C1681E4682469046F9B109
:105A20000B68BB4215D08A7BBAB101F10B0422444A
:105A300007E0022E03D198F80130AB4209D0A24210
:105A40000BD014F8015F002EF9D098F80030AB426B
:105A5000EFD16FF00700BDE8F88589680029DFD134
:105A60003B68002B36D07B68002B33D07B698BB32F
:105A7000FB697BB3BB696BB33B695BB33B6A4BB3FD
:105A8000182010F0EFF8054608B30024144A154B0F
:105A900084601021C46004614461047041804360EB
:105AA0001368DAF80C00103B136041463246286157
:105AB000AE75AF6005F114000CF022FC05F108068C
:105AC000089BEB602046CAF80C60BDE8F8856FF0D3
:105AD0001000C0E76FF00A00BDE76FF00A007047E2
:105AE000E4030020ADDEADDEF8B5056985BB0B68CB
:105AF0000C4653B34B6843B34B6933B3CB6923B301
:105B00008B6913B30B6903B30B6AF3B10646182014
:105B1000174610F0A7F80346A0B10F490F4A9D6041
:105B20001020DD6058801D615D611D705A600A683B
:105B300003F1080C103A0A602846C3E90247C6F888
:105B400010C0F8BD6FF01000F8BD6FF00A00F8BD8E
:105B50006FF00700F8BD00BFE4030020ADDEADDE4E
:105B600038B5C468FCB100F10C0503E004F1080588
:105B7000A468C4B123688B42F8D12146FFF78EFB9D
:105B8000A3682B60082CA4F1080008D014F8081CA6
:105B9000054A448852F82130234442F82130BDE8B8
:105BA000384010F061B838BDE40300200169E9B164
:105BB00038B50446FFF772FB23698BB1082BA3F1BC
:105BC000080008D013F8081C094A458852F821300B
:105BD0002B4442F8213010F047F80023236138BDF0
:105BE000184610F041F80023236138BD704700BF0C
:105BF000E403002001757047002908BF022834BF64
:105C000001200020704700BF002908BF052805D0EB
:105C1000002906BF09280120002070470120704795
:105C2000F0B51D46DB6AAA6891B000240E33CDE9B9
:105C30000B44CDE90D4407460A900E46ADF83C30C2
:105C40008DF83E408DF80C408DF80D408DF80E40DB
:105C50008DF80F4012B90EE0D26862B19468002C42
:105C6000FAD0136900930DF10E020DF10F030DF13F
:105C70000D0103A8A0470224002304A901220AA8B9
:105C80008DF81030FEF7A4FE04A922460AA8ADF84C
:105C90001040FEF79DFE9DF80D109DF80C30224639
:105CA00043EA01330AA804A9ADF81030FEF790FECC
:105CB0009DF80F109DF80E30224643EA01330AA8E2
:105CC00004A9ADF81030FEF783FE41F2010322462D
:105CD00004A90AA8ADF81030FEF77AFE04A90AA8B4
:105CE000FEF7FAFEA96A69B1EA6A0AA8FEF770FE31
:105CF000EB6A089A00280CBF1846002000F0FF034A
:105D000002B1137004A90AA8FEF754FEC6F30B01F2
:105D100038460B9A41F48041FEF796F9002011B005
:105D2000F0BD00BF70B588B00024054669465868CC
:105D3000029540F20313CDE90344CDE905448DF803
:105D40001E40ADF81C302EF09DFBC8B9034601A9DA
:105D5000012202A88DF80430FEF73AFEBDF80030AB
:105D6000ADF8043001A902A80222FEF731FE284650
:105D7000039A44F62731FEF767F9002008B070BD9A
:105D800001A90226012202A88DF80460FEF720FE78
:105D9000324601A902A8ADF80440E6E730B589B063
:105DA000002440F203130546ADF81C30CDE902048F
:105DB000CDE9044406948DF81E402EF08FFB031BA2
:105DC00018BF01230DF10701012202A88DF8073049
:105DD000FEF7FEFD2846039A44F62631FEF734F915
:105DE000204609B030BD00BF022900D070470068CE
:105DF000FF21FEF7EDBB00BFF0B5548987B0002549
:105E0000029203920594ADF8105034B31F4601225C
:105E10000DF1070102A8FEF77BFEBC689DF8076044
:105E20007CB12268304642B121699047E4688CB168
:105E3000226801253046002AF6D1E468002CF0D112
:105E400045B9386800224FF40051FEF7D9F9386897
:105E5000FEF7E8FB002007B0F0BD0322FEF7D0F903
:105E6000002007B0F0BD00BF2DE9F0418EB0002545
:105E7000804601220F4602A808A940F203161C46DC
:105E8000CDE90355CDE90555CDF808808DF81E50B4
:105E90008DF82050ADF81C60FEF79AFD08A902A805
:105EA00001228DF82050FEF793FD059B23B9049A3B
:105EB00013895568013B1D44A4687CB100266368C2
:105EC00001A902A83BB122690196984790B9019AAD
:105ED0002B7813442B70E468002CF0D1C7F30B012E
:105EE0004046039A41F48041FEF7AEF800200EB020
:105EF000BDE8F08103994046FDF7A4FF40F203108E
:105F000002230DF10301ADF83400012208A88DF839
:105F10000330CDE90886CDE90A660C968DF8366027
:105F2000FEF756FD0DF1030108A801228DF803606C
:105F3000FEF74EFDC7F30B014046099A41F480413C
:105F4000FEF782F800200EB0BDE8F081F0B58BB00E
:105F50000646586804960023CDE90533CDE907339A
:105F600040F203148DF82630002200236946CDE963
:105F70000023ADF824402EF059FA00283CD1044605
:105F800002A9012204A88DF80840FEF721FD4FF474
:105F90007A720023DDE9000150F026FF27460D4606
:105FA0000346010A63F3070741EA05611A0C61F32E
:105FB0000F2742EA05421B0E62F3174743EA052307
:105FC00063F31F674FEA152C2B0C02A904A80822C3
:105FD0008DF80C508DF80F4002978DF80DC08DF89C
:105FE0000E30FEF7F5FC3046059A44F20801FEF744
:105FF0002BF800200BB0F0BD0223012202A904A857
:106000008DF80830EDE700BF70B58CB00024054670
:106010000DF107025868069540F2031302A9CDE975
:106020000744CDE909448DF82E40ADF82C302EF010
:1060300023FA60BB034604A9012206A88DF810309C
:10604000FEF7C6FC9DF807308DF8103004A9012238
:1060500006A8FEF7BDFCDDE902431A0A1E0C8DF806
:1060600014301B0E8DF8152004A906A808228DF8FF
:1060700016608DF817300494FEF7AAFC2846079A9C
:1060800044F63631FDF7E0FF00200CB070BD02236E
:1060900004A9012206A88DF81030FEF799FC04A986
:1060A000012206A88DF81040FEF792FCCDE90444C9
:1060B00004A906A80822DFE72DE9F04FADF5057D1C
:1060C00003464FF4947200213AA808AC1D46019390
:1060D0000CF024F99022002116A80CF01FF90023DF
:1060E00040F2031216A93AA8C4E90133C4E9033304
:1060F0002560A282A3752EF0F5F988B101220EA9C0
:1061000020468DF83820FEF763FC0198626844F65B
:106110002531FDF799FF00200DF5057DBDE8F08FD5
:1061200005460EA9012220468DF83850FEF750FC96
:10613000DDE93A122B460E0A46EA026661F30703CE
:1061400062F30705080C170A40EA024066F30F23C2
:10615000090E160C67F30F2541EA022160F317437D
:1061600066F31745120E61F31F6362F31F65012684
:106170000EA908222046CDE90E35FEF729FC0EA90E
:10618000324620468DF83860FEF722FC092332465D
:106190000EA920468DF83830FEF71AFC15AB0DF12C
:1061A00058093AAD009305F1080CBCE80F000EAE9B
:1061B0000FC69CE80F0086E80F0099E80F000DF16C
:1061C000100C8CE80F0080460CF07EFED5E904B67A
:1061D000024641462046D5E9067A95F82480FEF726
:1061E0005FFE08224FEA162E4FEA164C330E0DEBD7
:1061F000020120468DF80DE08DF80EC08DF80F30AD
:106200008DF80C60CDF808B0FEF7E2FB042202A97D
:106210002046CDF808A0FEF7DBFB042202A92046A9
:106220000297FEF7D5FB4FF00403012202A9204696
:106230008DF80830FEF7CCFB05AE56F8043B029310
:10624000042202A92046FEF7C3FBA642F5D114AEF4
:1062500016F8013B8DF80830012202A92046FEF70E
:10626000B7FB009BB342F3D1012202A9204620359F
:106270008DF80880FEF7ACFB82ABAB4209F1100948
:1062800091D142E72DE9F0438DB0002440F2031391
:10629000064602A8ADF82C30CDE90664CDE90844E5
:1062A0000A948DF82E400FF0C7FD01A9012206A81F
:1062B0008DF80440FEF78CFB029B019301A9042298
:1062C00006A8FEF785FB039B019301A9042206A8FB
:1062D000FEF77EFB049B019301A9042206A8FEF7AA
:1062E00077FB059B019301A9042206A8FEF770FB2A
:1062F0000FF024FD054680B901A906A801228DF8FA
:106300000450FEF765FB3046079A44F62331FDF74B
:106310009BFE00200DB0BDE8F08300EB40095FEA72
:10632000C90954D009F108000FF09CFC00284ED098
:106330002B4B2C4FA0F80290047043603B6800F197
:1063400008082946A3EB090340463B600FF0F8FC20
:106350000122054601A906A88DF80450FEF738FB76
:10636000002D24DD05EB450508EBC5054446214617
:106370000C2206A8FEF794FD0422E36801930DEBBE
:10638000020106A8FEF724FB0422236901930DEB0A
:10639000020106A8FEF71CFB04226369019318346E
:1063A0000DEB020106A8FEF713FBA542DFD1B8F101
:1063B000080FA8F1080007D018F8082C418857F8F2
:1063C00022300B4447F822300FF04EFC9BE70023AD
:1063D00001A906A801228DF80430FEF7F9FA92E728
:1063E000ADDEADDEE40300202DE9F04FADB00025B9
:1063F00054890A920B9240F20312CDE90F55CDE970
:10640000115501900D9402911E460E90ADF830503A
:106410008DF84E50ADF84C20FEF7D6F8FF2800F06E
:10642000B681022800F0E081BDF830300D9A9A4222
:1064300000F0C58114A90AA80122FEF769FB9DF8A6
:1064400050B0BBF1000F00F0CF804FF0FF33DFF80A
:1064500038940393069300274FF00008BDF83020CE
:106460000D9B9B1A012B40F2EB816022494614A838
:106470000BF046FF012208A90AA8FEF749FB9DF888
:106480002040012208A90AA8FEF742FB9DF820300F
:10649000002C4BD0012C49D0A02C00F07581A12CF0
:1064A00000F08281A22C00F09381A32C00F0938154
:1064B000A42C00F09381A52C00F09381A62C00F071
:1064C0009581A72C00F09581A82C00F09581A92C2E
:1064D00000F0958104230122154614A90EA88DF819
:1064E0005030FEF775FA2A4614A90EA88DF85050C0
:1064F000FEF76EFA2A4614A90EA88DF85040FEF752
:1065000067FA2A460EA814A905238DF85030FEF725
:106510005FFA029B01980F9AC3F30B0141F480418B
:10652000FDF792FD00202DB0BDE8F08FA2462CAA09
:1065300002EBCA024FEACA0A12F85E1C994240F006
:10654000118112F85F2C002A40F00E81013B072BCD
:106550000CD8DFE803F06F600B570B0B0B0408221D
:1065600008A90AA8FEF7D4FADDE908782CAB9A440A
:106570005AF85C3C2BB1384641469847002800F059
:106580000181012C00F0F28004F16003DBB2092BE1
:1065900015D8A4F1A003092B11D8DFE813F0CC0023
:1065A000C500D3007B00A90010009400B80055007E
:1065B0000A00706839462DF047FD002873D1013577
:1065C000EBB25B45FFF44AAF069B002B039BC0F286
:1065D0004981002BC0F23D81A0241A4606997068BB
:1065E0002DF00EFD00285ED10024012214A90EA872
:1065F0008DF85040FEF7ECF90EA814A901228DF891
:10660000504084E7042208A90AA8FEF781FA4FF057
:106610000008089FAAE7022208A90AA8FEF778FA4C
:106620009DF821309DF8207047EA0327BFB24FF054
:1066300000089BE7012208A90AA8FEF769FA4FF0B3
:1066400000089DF8207091E7CDE904780797B046DF
:106650004FF0000A26463C46012303FA0AF3234280
:1066600014BF012100215FFA8AF00AF1010A2DF01E
:106670001BFE002840F0C680BAF1090FECD1464657
:10668000079B73620135EBB25B45DDE90478FFF4EB
:10669000E5AE99E71FFA87FA706851462DF004FDC0
:1066A000002800F08480063040F0AD8013230122E2
:1066B00014A90EA88DF85030FEF78AF90EA814A977
:1066C0000023012221E757EA080314BF4FF0010A13
:1066D0004FF0000A706851462DF006FD0028E2D107
:1066E0000135EBB25B4586F811A0FFF4B7AE6BE75E
:1066F00070683A4643462DF0E7FC0028D3D10135B7
:10670000EBB25B45C6E90678FFF4A8AE5CE77068BB
:1067100039462DF021FC0028C5D10135EBB25B458F
:106720003762FFF49BAE4FE70135EBB25B45039751
:10673000FFF494AE48E70135EBB25B450697FFF4F2
:106740008DAE41E71FFA87FA706851462DF09EFC26
:106750000028A8D10135EBB25B45A6F812A0FFF4E2
:106760007DAE31E70323B6E60923B4E657EA080312
:1067700014BF0121002170682DF060FC00283FF457
:106780001EAF90E70523A6E64FF0020ACFE60123ED
:1067900014A901220EA88DF85030FEF719F914A99A
:1067A0000EA800230122B0E64FF0030ABFE6013530
:1067B000EBB25B45A6F814A0FFF450AE04E7DDE9A8
:1067C00001010322FDF71CFD00202DB0BDE8F08F74
:1067D0004FF0040AABE64FF0050AA8E64FF0060AB0
:1067E000A5E64FF0070AA2E61323D1E74FF0080A07
:1067F0009DE64FF0090A9AE64FF00A0A97E64FF035
:106800000B0A94E6344601221546052614A90EA863
:106810008DF85060FEF7DCF82A4614A90EA88DF812
:106820005050FEF7D5F82A4614A90EA88DF850400E
:10683000FEF7CEF82A460EA814A98DF8506066E639
:10684000DDE901010622FDF7DBFC00202DB0BDE8EB
:10685000F08F706808A914AA2DF0E4FB90B9149B7E
:106860000393B9E6002BFFF6BFAE706808A914AA1F
:106870002DF0D8FB20B9089B039A0693A124ADE61E
:10688000A12410E7A0240EE7BC7D06002DE9F04FFF
:1068900099B05589089200240646099240F20310E7
:1068A0004FF0FF32CDE90B56CDE90D44CDE90F4451
:1068B000CDE91344CDE91544CDE904441296894647
:1068C000ADF828408DF846408DF85E40ADF84400A4
:1068D000ADF85C000392002D3FD0012206A908A864
:1068E0009846FEF715F9BDF828200B9B9DF8187007
:1068F0009B1A9F4231D8012206A90CA88DF8184096
:10690000FEF766F80CA8012206A98DF81870FEF7AC
:106910005FF8002F00F08181A2464FF0010BCDF807
:106920000490012206A908A8FEF7F2F89DF8185075
:10693000A92D00F22D819F2D40F20081A5F1A20327
:10694000072B00F21881DFE813F0D600BB008000AF
