:100000000000022001F0010045F0010047F001006E
:1000100049F001004BF001004DF00100000000002C
:10002000000000000000000000000000D10B0300F1
:1000300051F0010000000000F10B03000D2003004F
:10004000FD49020057F00100254C0200E93402008E
:1000500057F0010057F001008D2E020057F001000B
:10006000D53C020057F0010057F00100193302009F
:1000700057F0010057F0010057F0010057F0010060
:100080000D4A0200F10C030057F0010057F0010087
:1000900057F0010057F0010057F0010057F0010040
:1000A00057F0010057F0010057F001002D3D02000C
:1000B00057F0010057F001000000000000000000B0
:1000C00057F0010057F0010057F0010061340200C1
:1000D00057F0010057F0010057F00100555C020095
:1000E00057F00100000000000000000000000000C8
:1000F0000000000057F0010000000000C9330200BA
:1001000000000000000000000000000000000000EF
:1001100000000000000000000000000000000000DF
:1001200000000000000000000000000000000000CF
:1001300000000000000000000000000000000000BF
:1001400000000000000000000000000000000000AF
:10015000000000000000000000000000000000009F
:10016000000000000000000000000000000000008F
:10017000000000000000000000000000000000007F
:10018000000000000000000000000000000000006F
:10019000000000000000000000000000000000005F
:1001A000000000000000000000000000000000004F
:1001B000000000000000000000000000000000003F
:1001C000000000000000000000000000000000002F
:1001D000000000000000000000000000000000001F
:1001E000000000000000000000000000000000000F
:1001F00000000000000000000000000000000000FF
:020000021000EC
:10E00000EFBEADDE000000000000000000000000D8
:10E010000000000000000000000000000000000000
:10E0200000000000000000000000000000000000F0
:10E0300000000000000000000000000000000000E0
:10E0400000000000000000000000000000000000D0
:10F0000000F02AB80A484FF00701884385460948AE
:10F0100080470948094901600948016841F47001C5
:10F020000160BFF34F8FBFF36F8F00F017B8000080
:10F0300000000220B16C020008ED00E000000000BA
:10F0400088ED00E0FEE7FEE7FEE7FEE7FEE7FEE70D
:10F05000FEE7FEE7FEE7FEE7FFF7D4BF30493148A1
:10F060000A1A02D0072291438D462F492F480A1AC7
:10F0700006D00722914381F30988022282F3148883
:10F080002B482C492C4A00F03AF82C482C492D4AA0
:10F0900000F035F82C482D492D4A00F030F82D4865
:10F0A0002D492E4A00F02BF82D482E492E4A00F00B
:10F0B00026F82E482E492F4A00F021F82E482F49D5
:10F0C0002F4A00F01CF82F482F49002200F022F8A8
:10F0D0002E482F49002200F01DF81F481F49884282
:10F0E00005D00268043003B4904703BCF7E7002062
:10F0F0008646EC4600200021264A9047FEE78842DB
:10F1000007D0521A05D0037801300B700131013A53
:10F11000F9D17047884202D002700130FAE7704797
:10F120000000022000F80120000002200000022060
:10F13000F8CD0600380100205007002098F10100AA
:10F1400098F10100C82D0600F8CD06003801002016
:10F1500038010020502E0600502E0600502E0600CA
:10F16000502E0600502E0600502E0600502E06008F
:10F17000502E0600F8CD060010D4060050070020DF
:10F18000500700205007002074BE012074BE0120EB
:08F1900078BE0120A5F1010089
:10F19800004870476CBE0120FEE7000008B512F079
:10F1A8003DFA13F069FB11F073FE12F079FA12F0D0
:10F1B80085FA40B913F088FC13F0FCFB13F0A8FBA8
:10F1C80011F048FFFEE70421012012F009FBF1E7E6
:10F1D80030BF7047064B1A5C1F2A86BF054902F0EC
:10F1E8001F024FF0A04101239340C1F80C3570472E
:10F1F800502E060000030050064B1A5C1F2A86BFDB
:10F20800054902F01F024FF0A04101239340C1F8C5
:10F2180008357047502E0600000300504FF0A043F9
:10F2280010B4202010244FF480014FF48042C3F81A
:10F238000845C3F808055DF8044BC3F80815C3F87A
:10F24800082570470A4B185C1F288ABF09494FF0E8
:10F25800A04100F01F00D1F804350122824022EAC3
:10F2680003001340C1F80805C1F80C35704700BF0A
:10F27800502E060000030050C10707D4830742BF81
:10F288004FF0A0430C22C3F8082770474FF0A04363
:10F298000322102110B4C3F810272024C3F8142720
:10F2A800C3F85827C3F83827C3F808154FF4804225
:10F2B8004FF48001C3F80845C3F80815C3F80825BA
:10F2C800820704D54FF0A0430C22C3F808275DF845
:10F2D800044B704759B142B1531E1A4005D18260A0
:10F2E80001608380C26010467047092070470E2075
:10F2F800704700BF10B48468C26803468088121B38
:10F30800904203D204205DF8044B7047DC681A6809
:10F3180020401154DA685DF8044B01320020DA60AD
:10F32800704700BF03468068DA6890420DD010B479
:10F338009A889C68186822405DF8044B825C0A70C1
:10F348009A68013200209A6070470520704700BF14
:10F3580030B50478012C83B004D0022C2DD0ECB148
:10F3680003B030BD037A002B3CD04368364D197882
:10F378002846FFF7BFFF002855D0344B01901B6883
:10F388008DF8004068469847A968EB68AA885B1A18
:10F398009A4227D22E4B01221A70E1E72D492E48B6
:10F3A800FFF7C0FF00282DD0284B03221B688DF8DB
:10F3B80000206846984703B030BD284B284D1A787E
:10F3C800C168AA5C01918DF800402649AAB90122BA
:10F3D80003F10C0004F00AFF1C4B68461B689847B1
:10F3E80003B030BD1D4B1E4A1B781E49D35C012259
:10F3F800ABB11D4805F0B4F9B2E70122181D05F0BC
:10F40800AFF9E9E71548164A03781249D35C012297
:10F41800A3B1043003B0BDE8304005F041B913484A
:10F4280004F0E4FE9CE7AA68EB689A42ACD0074B6C
:10F438008DF800001B6868469847A5E70C3003B0B4
:10F44800BDE8304004F066BE540700205007002095
:10F45800640700207C07002068070020380100208E
:10F4680000090020780700203C010020440100200A
:10F478002DE9F0412F4E88B03260002951D08A889A
:10F4880004460E462C4809681D46FFF723FF10B1B5
:10F4980008B0BDE8F081B289B1682848FFF71AFFC3
:10F4A8000028F5D194F810E0637C254E254FBEF175
:10F4B800000E18BF4FF0010E002B0FCEEC46ACE843
:10F4C8000F006368009323680193E3680293A368BD
:10F4D800039396E80F0018BF4FF00E088CE80F0052
:10F4E80008BF4FF000086369174A06936946384613
:10F4F8008DF814E08DF81C508DF8158003F0B2FAE1
:10F508000028C5D12368114A01331070C0D0104AB1
:10F518003B781049D35C01223BB1381D05F020F936
:10F52800B6E7072008B0BDE8F08107F10C0004F049
:10F538005DFEADE750070020540700206807002053
:10F54800542E06003801002059F3010064070020FA
:10F55800000900207807002070B5104D01461048BA
:10F568002E78FFF7DFFE04460EB9204670BD0D4821
:10F578000D490378CB5C0D4900222A70012243B162
:10F58800043005F0EDF80028EFD000F05DF82046D3
:10F5980070BD0C3004F02AFEF5E700BF64070020B8
:10F5A80054070020380100200009002078070020B7
:10F5B80070B501461548FFF79DFE044608B1204680
:10F5C80070BD134D134E2B78F35CA3B1281D05F0C5
:10F5D800B9F80028F3D110490C48FFF7A3FE00281A
:10F5E800EDD12B780C49F35C53B1BDE870400B4862
:10F5F800012205F055B805F10C0004F0EBFDE8E731
:10F60800BDE870400648012204F084BD6807002068
:10F6180038010020000900207C0700203C01002060
:10F628004401002072B6024A136801331360704720
:10F6380080070020034A1368013B136003B962B6D0
:10F64800704700BF8007002000B585B00346002141
:10F6580001AA44F20100CDE90111039300F004F876
:10F6680005B05DF804FB00BF72B6094BD3F8F03063
:10F67800DB0700D500BEBFF34F8F0549054BCA68AD
:10F6880002F4E0621343CB60BFF34F8F00BFFDE786
:10F6980000ED00E00400FA050346002253E8000FDD
:10F6A80000EA020143E8001C9CF0000FF6D1704705
:10F6B80050B161B110B58B68416011460446984756
:10F6C80008B9044B236010BD48F20150704748F256
:10F6D8001050704763414553B8B103680C4A9342D0
:10F6E80010B5044606D163682046DB6898470023B6
:10F6F800236010BD02F17F6202F5402202F57C72A0
:10F708009342F0D048F2025010BD48F201507047C1
:10F718006341455368B130B4094C0568A54204D12A
:10F7280051B1436830BC1B69184748F2025030BCDD
:10F73800704748F20150704748F21050F7E700BF91
:10F748006341455338B3F0B5DFF860C007686745D3
:10F7580083B0044617D109B3CBB1089DBDB100955C
:10F7680045682D6AA84748B92368BB4208D1636831
:10F778002046DB689847A0B90B4B236003B0F0BD67
:10F78800094A9342F3D048F2025003B0F0BD48F260
:10F79800135003B0F0BD48F20150704748F21050C2
:10F7A800ECE700232360E9E7534541636341455390
:10F7B8002DE9F04182B0002942D0064615461F4681
:10F7C8000C46002842D08A68416029469047044682
:10F7D80000282ED1354A3260002F31D08046736818
:10F7E80039461B69304698470446E0B92F4B3268C2
:10F7F8009A4222D173685B695BB1089A002A4BD0A0
:10F8080011463046984748F203539842044600D0C0
:10F8180048B90C9B00930999DDE90A233046FFF7A4
:10F8280091FF044620BBB8F1000F02D0404611F00A
:10F83800EDFB204602B0BDE8F08148F20254F2E741
:10F8480048F21054204602B0BDE8F081486811F033
:10F85800DBFB804618B3A3684460294698470446F2
:10F868000028E3D1114BC8F80030DFB14646B6E7AF
:10F8780033680E4A934206D173683046DB6898476E
:10F8880000233360CFE702F17F6202F5402202F5E0
:10F898007C729342C7D1EFE748F21054C3E748F2AD
:10F8A8001554C6E748F21054C0E700BF63414553FA
:10F8B8002DE9F0438046406804788BB00E46154623
:10F8C8001F46082C00F29780DFE804F02F2F5A65B6
:10F8D800404005055500A2B308F11C044FF000098B
:10F8E80008F1090801E04D452BD906EB0902CDE9DD
:10F8F80000274346102201212046914408F006FDC6
:10F908000028F0D010F5C14F6FD053DC10F5C34F6D
:10F918005FD010F5C24F48F2115248F2165308BF93
:10F92800134618460BB0BDE8F08398F8081008F1A4
:10F938000903CDE9006708F11C0008F0E7FC00287E
:10F94800E0D1002318460BB0BDE8F08312F00F0495
:10F958004ED1002AF5D008F10C0901E0A542F0D9F2
:10F968003B19321998F808104846103408F0C4FCBE
:10F978000028F3D0C6E708F10C000DF041F9DEE7E6
:10F9880098F8081008F10903CDE9006708F11C0090
:10F9980009F060F9D3E706ABCDE9003100240297FE
:10F9A80008F1090305AA294608F11C00059409F085
:10F9B800FFF9C4E710F5A24F11D048F2115248F2EE
:10F9C800165310F1220F08BF134618460BB0BDE8B6
:10F9D800F08348F2155318460BB0BDE8F08348F29F
:10F9E800175318460BB0BDE8F08348F20353A9E754
:10F9F80048F21153A6E748F20253A3E708B5426854
:10FA08001378082B14D8DFE803F02D2D05053B3BB0
:10FA18000505420052881C3007F0CEFB10F5A24FB6
:10FA28002BD012DC10F5C24F19D010F5C14F02D1FE
:10FA380048F2035008BD10F5C34F48F2165348F278
:10FA4800155214BF1846104608BD10F1220F06D0F3
:10FA5800002848F2165314BF1846002008BD48F283
:10FA6800115008BD037A5288012B00F11C00D3D035
:10FA780007F0E2FE10F5A24FD3D148F2175008BDA7
:10FA8800037A5288012B00F10C00F1D1C4E75288A7
:10FA98000C300DF08BF8C1E708B543681B78082BCC
:10FAA80015D8DFE803F0050505050A0A05050F0066
:10FAB8001C3007F05BFB002008BD0C3007F056FB3C
:10FAC800002008BD0C300CF0CDFC002008BD48F229
:10FAD800035008BD42685388B3F5807F70B504466B
:10FAE8000E4606D023F04003802B02D048F218506F
:10FAF80070BD1378082B28D8DFE803F00505050545
:10FB0800191924241400012E0ED8002504F11C0014
:10FB1800A560E56025616561257607F021FB28462B
:10FB2800267270BD022E14D048F2175070BD012EF7
:10FB3800FAD8002504F10C00257207F011FB2846BD
:10FB48002672EEE7022EEFD1DFE748F20350267265
:10FB5800E7E704F10C0528460CF080FC63685B8835
:10FB6800C02B26D0B3F5807F05D0802B1FD048F25C
:10FB780002502672D5E704200CF042FC014638B347
:10FB880028460CF087FC02460028C9D010F5C14F62
:10FB9800DBD010DC10F5C34F1ED048F2165312F517
:10FBA800C24F48F21150267218BF1846B9E73046BE
:10FBB800E2E70320E0E710F5A24F11D048F2165310
:10FBC80048F2115012F1220F18BF18462672A8E702
:10FBD80048F216502672A4E748F215502672A0E79C
:10FBE80048F2175026729CE770B5049D1E462B6894
:10FBF8000F2B23D900F10C0420460DF001F860B159
:10FC080010F5C14F1DD011DC10F5C34F1FD010F5F2
:10FC1800C24F10D148F2115070BD314620460DF048
:10FC2800E5F80028ECD110232B6070BD10F5A24F29
:10FC38000AD02230EED048F2165070BD48F2145067
:10FC480070BD48F2035070BD48F2175070BD48F2BD
:10FC5800155070BD2DE9F0478AB01F46DDF8488081
:10FC6800D8F80030934214D3436812F00F091B7878
:10FC7800144605460E4602D09A1E012A0FD8082BB4
:10FC880000F2A080DFE803F01111657023234C4CCB
:10FC98007F0048F2145318460AB0BDE8F08748F2CE
:10FCA800115318460AB0BDE8F087CDE9006705F1A1
:10FCB8000903297A224605F11C0008F027FBE0B960
:10FCC80000231846C8F800400AB0BDE8F087B9F12B
:10FCD800000FE4D1002CF3D005F10C0A01E04C45EB
:10FCE800EED907EB090306EB0902297A504609F118
:10FCF800100908F001FB0028F1D010F5C14F5ED0C3
:10FD080048DC10F5C34F54D010F5C24F48F21152D9
:10FD180048F2165308BF134618460AB0BDE8F087E4
:10FD2800002CCDD005F11C094FF0000A093501E07F
:10FD38005445C5D906EB0A03CDE9003710222B46F6
:10FD4800012148460AF1100A08F0E0FA0028EFD02D
:10FD5800D3E7CDE9006705F10903297A224605F1C1
:10FD68001C0008F077FFAAE706AB0021CDE90036B2
:10FD78000591029705F1090305AA05F11C00214622
:10FD880009F016F89BE72246314605F10C000CF005
:10FD980037FF94E710F5A24F0ED048F2115248F2FF
:10FDA800165310F1220F08BF134618460AB0BDE8D3
:10FDB800F08748F215536EE748F217536BE748F29D
:10FDC800035368E748F2025365E700BF08B5436884
:10FDD8001B7808301BB90BF02DFE002008BD0EF073
:10FDE800EFFA002008BD00BF10B586B09DF8384076
:10FDF800A4F1040EBEF10C0F33D814F0010F30D16A
:10FE0800A3F1070CBCF1060F43D801294FD00029F4
:10FE180043D10D9904910C9903910A99029109997A
:10FE280001910899009105940B9908300BF028FE70
:10FE3800002812DC10F1140F17DB143014280CD82A
:10FE4800DFE800F02B0B2F0B0B2F0B2B0B0B0B0BE7
:10FE58000B0B0B0B0B0B0B0B450048F2165006B0A7
:10FE680010BD48F2625006B010BD10F5C24F1BD04D
:10FE780010F5C14F08BF48F20350F0D010F5C34F3A
:10FE880048F2165348F2155214BF1846104606B0E9
:10FE980010BD48F2615006B010BD48F2175006B0C8
:10FEA80010BD48F26050DAE748F21150D7E70D99D3
:10FEB80004910C9903910A99029109990191089961
:10FEC800009105940B9908300BF0C0FDB0E70020B5
:10FED800C5E700BF436830B55A880D4622F0400197
:10FEE800802983B0044602D0B2F5807F33D11B78D5
:10FEF80013B3032B03D048F2035003B030BD04F111
:10FF0800080001900EF07AF8636801985B882A4629
:10FF180002210EF079F80028EFD010F10C0F1EDA4C
:10FF280010F1140F22DB1430072818D8DFE800F08E
:10FF380032171B17171B173204F1080001900BF03A
:10FF480051FD636801985B882A4602210BF04EFD3B
:10FF58000028D2D0E1E748F2185003B030BD48F28B
:10FF6800165003B030BD48F26050C6E710F5C24FD6
:10FF78000DD010F5C14FBED010F5C34F48F2165240
:10FF880048F2155314BF1046184603B030BD48F266
:10FF98001150B2E748F21750AFE700BF69B162B13C
:10FFA80010B5044660B1084B03604B6841601146C8
:10FFB800984708B10023236010BD48F210507047DD
:10FFC80048F2015010BD00BF4145414470B1094B92
:10FFD80002689A4210B5044605D143689B68984761
:10FFE8000023236010BD48F2025010BD48F20150B2
:08FFF800704700BF4145414480
:020000022000DC
:100000002DE9F047DDE90859DDE90A6EDDE90CC4A8
:100010009DF83880002831D01D4F8A460168B942CA
:1000200014D1BAB1E4B105B326B3BCF1000F29D0A5
:10003000CDE90BECCDE90D48CDE90996089544686A
:10004000E4685146A446BDE8F047604748F20250D4
:10005000BDE8F087002BE5D048F21050BDE8F087EE
:10006000B8F1000FF8D1002DDED1B9F1000FF3D1B6
:10007000002EDAD1BEF1000FDAD0EDE748F20150E0
:10008000BDE8F087BEF1000FD2D048F21350DFE791
:10009000414541440378052B02D0094B1B681847A2
:1000A000084BD3F88424D3F88034DBB2002BF4D18E
:1000B000054BD2B2052A08BF1846014B1B681847EA
:1000C0008407002000700240E42E0600014B024825
:1000D0001B68184784070020E82E0600012803D07B
:1000E000022809D020B17047054B06481B68184705
:1000F000034B05481B681847014B04481B68184709
:1001000084070020DC2E0600E02E0600D82E060014
:100110002DE9F04F89B0002504460E46019298461D
:10012000049500E0013562680123D2F8049021466D
:10013000002204A8C8470028F4D18DF80E000690CC
:1001400085B3814682460BE09DF80E306768023B1E
:10015000D7F804B0D8479DF80E309A44554521D9B8
:1001600060680123D0F804B00DF10E02214606A804
:10017000D84760680123D0F804B00DF10F02214682
:1001800006A8D8479DF80F30B3424FF00002214631
:1001900006A8D9D1019B4B4508D009F101095FFAA6
:1001A00089F9D1E7052009B0BDE8F08F129A9DF8D2
:1001B0000E30136088F8003088F801606268023BF6
:1001C000556808F10202A847002009B0BDE8F08F89
:1001D0002DE9F047054682B03F4805F09DFD0446F5
:1001E00018B1204602B0BDE8F0873C493C4A3D4B7F
:1001F000087010600146482218603B4816F08FFDD9
:100200003A484822214616F08AFD002D5AD095E83A
:100210000700374B83E8070000284DD0002002F08C
:10022000CDFB08B185284AD1DFF8C88098F808309E
:10023000002B4DD0D8F804102C4C0D682A4E013BF1
:10024000DBB208F10C024FF0030908F1090719FBB2
:1002500003297B78BBB1B97807F1010C013B8C44D1
:100260007A185CFA83FC12F8013B03F00F011B06BD
:1002700004EBC10E06EBC10A14D4944544F8318056
:10028000CEF80450EFD103374F45E2D10B23194884
:100290008DF8043001A9A84704460028A1D005F034
:1002A000D1FD9EE7944546F83180CAF80450DAD172
:1002B00003374F45CDD1E9E70F4A1A60AEE7FFF7A4
:1002C000C7F9B1E70A4B0C4A1D72C3E90025A5E73F
:1002D000D8F804301D68D9E79500020029080020ED
:1002E000200800202408002090070020D8070020C4
:1002F00084070020002F06008907020010B506F0D1
:1003000043F868B106F048F8044648B9064802F0D8
:1003100069FB034628B1FFF79BF92346184610BD39
:100320000823184610BD00BFD42E060005F094BD6A
:1003300005F014BE4FF0804303E0D3F83824D10712
:1003400007D5D3F838249207F7D5024B02481B682B
:100350001847704784070020FC2E060000B5054BA7
:1003600083B082221B688DF8042001A8984703B04F
:100370005DF804FB840700202DE9F047037A82B082
:10038000002B70D0013B00F10904DBB200F10C023C
:100390000325DFF8D8E0DFF8DC8015FB03252146D4
:1003A0004F7800239F4201EB03021DD091F802C059
:1003B00012F90C6012F80C20002E02F00F0608DB78
:1003C0005EF836200133002AECD0112002B0BDE8DF
:1003D000F08702F00F02013358F83220002AF4D1DE
:1003E0009F4201EB0302E1D103318D42D8D1436832
:1003F0001E4F1E68DFF87C906378BBB1A17804F1D2
:10040000010E013B8E4462185EFA83FE12F8013B36
:1004100003F00F011B0607EBC10809EBC10A18D452
:10042000964547F83100C8F80460EFD10334A5427F
:10043000E2D10F4A13681BB11A681368002BFBD175
:100440000B23106001A98DF80430B04702B0BDE85D
:10045000F087964549F83100CAF80460D6D10334D4
:10046000A542C9D1E5E743681E68E2E7D807002046
:100470002008002090070020024B1878003818BF91
:100480000120704728080020030710B5044604D552
:100490002046BDE8104006F0CFB806F057FB2046D6
:1004A00006F0FAFA2046BDE8104006F0C5B800BFD5
:1004B00006F02EB9014B1868704700BF20080020D5
:1004C0000F4B30B51D68A5B12C7AA4B100232A4684
:1004D0009C4603E05FFA83FC64450CD992F809E07E
:1004E000864503F1010302F10302F3D109B181F85A
:1004F00000C0284630BD2B681D68002DE4D1F8E708
:1005000020080020436811461B68184700F00F03BD
:10051000082B0AD802064CBF054A064A02EBC30361
:10052000186810B143681B6818471020704700BF57
:1005300090070020D807002038B5094B1C6864B12B
:10054000054602E023681C683CB1636820461B68CE
:10055000294698470628F5D038BD062038BD00BF8B
:100560002008002038B504460D4606F055F818B1AD
:10057000054B1B78022B01D0082038BD29462046A8
:10058000BDE8384006F090B92908002038B5044687
:100590000D4606F041F818B1054B1B78022B01D02F
:1005A000082038BD29462046BDE8384006F00CBA80
:1005B0002908002070B543689B6882B006460D4646
:1005C000144623B19847062801D002B070BD4CBB39
:1005D000337AAB422BD9093605EB450535446E78A5
:1005E000EEB13246234606E0013406F025F8E3B2C8
:1005F0009E4214D96A789A4216D9AB782A19D05CEF
:100600000307F1D4019006F0A1FA019806F044FA2C
:100610000134019806F010F8E3B2B342EAD30020A7
:1006200002B070BD0720D0E700231B78FFDE63789F
:10063000FFDE00BF43681B6903B1184718467047C7
:100640002DE9F0432E4BD3F8008083B0B8F1000FB2
:100650004CD098F80890B9F1000F40D0002708F16D
:1006600009053C4605E00137FCB2A14505F103054B
:1006700035D9D8F804309B682BB10022214640467A
:1006800098470628EFD198F80830A34231D96E7800
:10069000002EE8D000243246234606E0013405F05F
:1006A000CBFFE3B29E42DED96A78934224D2AB7884
:1006B0002A19D05C0307F1D4019006F047FA01989B
:1006C00006F0EAF90134019805F0B6FFE3B2B3424F
:1006D000EAD30137FCB2A14505F10305C9D8D8F822
:1006E0000030D3F80080B8F1000FB2D103B0BDE8FC
:1006F000F08300235B78FFDE00231B78FFDE00BF62
:10070000200800202DE9F8431E4B1F68002F34D02D
:1007100097F80890B9F1000F2BD04FF0000807F1BF
:10072000090544467B68DB6813B121463846984783
:100730003B7AA34223D96E789EB1002432462346E9
:1007400093420BD2AB782A190134D05C05F0E0FF5C
:10075000E3B29E4205D96A789342F3D300231B7813
:10076000FFDE08F101085FFA88F4A14505F10305F1
:10077000D8D83B681F68002FCAD1BDE8F883002392
:100780005B78FFDE20080020037870B50446852BD7
:1007900000F2BF80DFE813F0F801AA01BE003202C8
:1007A0005E02DC00E300BD00FD0010012301BD007E
:1007B000BD00BD00BD003601BD00BD00BD00BD00D7
:1007C000BD00BD00BD00BD00BD00BD00BD00BD0041
:1007D000BD00BD00BD00BD00BD00BD00BD00BD0031
:1007E000BD00BD00BD00BD00BD00BD00BD00BD0021
:1007F000BD00BD00BD00BD00BD00BD00BD00BD0011
:10080000BD00BD00BD00BD00BD00BD00BD00BD0000
:10081000BD00BD00BD00BD00BD00BD00BD00BD00F0
:10082000BD00BD00BD00BD00BD00BD00BD00BD00E0
:10083000BD00BD00BD00BD00BD00BD00BD00BD00D0
:10084000BD00BD00BD00BD00BD00BD00BD00BD00C0
:10085000BD00BD00BD00BD00BD00BD00BD00BD00B0
:10086000BD00BD00BD00BD00BD00BD00BD00BD00A0
:10087000BD00BD00BD00BD00BD00BD00BD00BD0090
:10088000BD00BD00BD00BD00BD00BD00BD00BD0080
:10089000BD00BD00BD00BD004A0186005901140223
:1008A000DB01DC00884B8949D3E900029047884B83
:1008B0001C684CB1854D636820461B6829469847E3
:1008C00023681C68002CF6D1824C63680BB10D20A4
:1008D0009847FFF717FF00F0FBFA7F4B1B68002BD0
:1008E00000F0FB8101207D4D05F03AFC2A78931E33
:1008F000DBB2062B00F213827949CB5C13B102F014
:1009000037F82A78022A40F00A8205F05BFE0123BC
:100910002B7070BD714D2A78931EDBB2062B40F20E
:10092000C581082A01D105F04DFE6A4B5B680322A0
:100930002A700BB102209847654B1D6845B16B6862
:1009400028461B68214698472B681D68002DF6D164
:100950005D4B2146D3E90002BDE87040104790F995
:1009600002308278002BB4BF5E4B574B02F00F026F
:1009700003EBC203D3E90002214690470028C8D008
:10098000A0780207C5D00307C3D4BDE8704006F0C5
:1009900077B8504B5B680BB1082098474C4B1D68EB
:1009A000002DB6D06B6828461B68214698472B68F7
:1009B0001D68002DF6D1ACE7464B5B680BB10920F2
:1009C0009847434B1D68002DA3D06B6828461B68D1
:1009D000214698472B681D68002DF6D199E73D4BBD
:1009E0005B680BB10A209847394B1D68002D90D0E9
:1009F0006B6828461B68214698472B681D68002DA8
:100A0000F6D186E7334B5B680BB10F209847304B2C
:100A10001D68002D3FF47DAF6B6828461B6821469A
:100A200098472B681D68002DF6D172E72B4C237870
:100A3000062B00F0548103F0FD03052B7FF469AF12
:100A400005F0CAFD0223237070BD244DFFF75AFE46
:100A500005F0AEFB2A78931EDBB2062B31D8204975
:100A6000CB5C13B101F084FF2A78022A29D105F06A
:100A7000A9FD174A146800232B704CB11A4E636805
:100A800020461B683146984723681C68002CF6D125
:100A90000D4B1549D3E9000290470E4B5B680BB133
:100AA0000E2098472B78023BDBB2062B3FF631AF86
:100AB0000B4AD35C002B3FF42CAFBDE8704001F033
:100AC00057BF082AD5D1D2E7D8070020F82E060054
:100AD0002008002084070020240800202908002086
:100AE000CC2E060090070020F42E06009D4DFFF747
:100AF00009FE00F0E3F92A78931EDBB2062B00F220
:100B0000DF809949CB5C002B00F0DA80022A03D009
:100B1000082A01D005F060FD944B5B6802222A7020
:100B20000BB101209847924B2146D3E90002904730
:100B3000904B1D68002D3FF4ECAE6B6828461B6897
:100B4000214698472B681D68002DF6D170BD854D54
:100B50002B78032B00F0CC8005F014FD00283FF427
:100B6000D8AE2A78931EDBB2062B40F2F180824881
:100B700001F0D0FE2A78022A01D0082A01D105F01E
:100B800021FD06232B7070BD764B1B78032B00F0E4
:100B9000AB80082B00F0A880744B5B680BB1002081
:100BA0009847764B1D68002D3FF4B3AE6B6828461E
:100BB0001B68214698472B685D68002DF6D170BDF3
:100BC000684D2B78032B7FF4A4AE05F0EFFB0028D3
:100BD0003FF49FAE2A78931EDBB2062B00F2D4803E
:100BE0006149CB5C13B101F0C3FE2A78022A40F0C0
:100BF000CB8005F0E7FC04232B7070BD594D2A789B
:100C0000082A62D0931EDBB2062B00F28C80564974
:100C1000CB5C002B00F08780022A00F08D8005233A
:100C20002B70524B5B680BB103209847504B214609
:100C3000D3E9000290474F4B1D68002D3FF469AE89
:100C40006B6828461B68214698472B681D68002D55
:100C5000F6D170BD454B5B680BB103209847444B00
:100C60004749D3E900029047424B1C684CB1444DC0
:100C7000636820461B682946984723681C68002C37
:100C8000F6D1384D2B78062B24D0082B0BD09A1E8A
:100C9000D2B2062A53D834498A5C002A4FD0022B9C
:100CA00001D005F099FC02232B7070BD2E49CB5C5E
:100CB00013B101F05DFE2A78022A3FF434AE30E62B
:100CC0002D4801F027FE2A7820E702232B7005F03B
:100CD0008DFCA6E707232B7070BD207A03E605F094
:100CE0007BFC0823237070BD2648FFF74DFD53E7BA
:100CF00005F05CFB00283FF42FAF2A78931EDBB28F
:100D0000062B2BD81849CB5C13B101F031FE2A78A1
:100D1000022A23D105F056FC04232B701CE7082A75
:100D20007FF4F5ADF1E5144801F0F4FD2B78022BCA
:100D300002D0082B7FF473AF05F044FC6FE70E4838
:100D400001F0E8FD2B78022BADD0082BABD0A8E743
:100D50000549CB5C002B7FF40EAF08E7082ADBD1F6
:100D6000D8E700BF29080020CC2E06008407002009
:100D7000D8070020200800204C0100202408002073
:100D8000EC2E0600F02E0600082A7FF434AF30E780
:100D9000002070472DE9F04F4B6885B0CDE9000287
:100DA0000C46002B70D005F067FEE568019B9D4264
:100DB00028BF1D468146002D7BD04FF0000A5646C5
:100DC0004FF00108D346D4E90113AB421F4628BFB8
:100DD0002F46E1B13A4609EB060015F077FFA2680D
:100DE000E368C4F804B0D21BED1B3E44DF1BA260D5
:100DF000E76022B3002F08BF4FF00008002DE2D1BA
:100E0000009BC3E90096404605B0BDE8F08FABB14A
:100E1000204609EB060250F8101B4B68D3F804A0DB
:100E20003B46D047A268E368D21BED1B3E44DF1B64
:100E3000A260E7605AB14FF0010ADBE7E768BAF158
:100E4000000F04D15FB9B846002DBCD1D8E72368A4
:100E50001B681B6823604FF0010A002FF3D0216844
:100E6000F1B1CDF808B003E0A36821680133A360B5
:100E70004B6800225F6802A80123B8470028F3D11D
:100E80002061002D9FD1BBE70B681B681B68002BFE
:100E900089D18B68002B86D1C0E900339846B2E730
:100EA0006160002EACD0019BB34288BF4FF00008B8
:100EB000A6E72E464FF00108A2E700BF08B50020C4
:100EC000FFF7E2FABDE808408020FFF7DDBA00BF77
:100ED00008B50020FFF7ECFABDE808408020FFF7D6
:100EE000E7BA00BF70B5C38893421E4628BF1646B6
:100EF000934284B00D4612D8002400200394CDE91B
:100F00000156FEF793FB01A98020FFF72BFB044657
:100F100088B10020FEF792FB204604B070BD80200F
:100F2000144605F069FBB4FBF0F202FB1044B4FA7E
:100F300084F46409E1E705F05DFE80280BD1094ADD
:100F4000094B92E8030083E803000020FEF776FBDC
:100F5000204604B070BD0020FEF770FB1024204630
:100F600004B070BD482F0600580800202DE9F04F4E
:100F70000B780E2B89B00CD893B1013B0D2B0FD8F9
:100F8000DFE803F07118130E33480E0E0E0E1862D0
:100F90001D23852B04D19F4B1A78032A00F024814E
:100FA0000625284609B0BDE8F08F9B48FEF778FB80
:100FB000002868D10025284609B0BDE8F08F4FF021
:100FC0008043D3F83834DB0765D4924B1A78012A72
:100FD000F0D0924992480A78012422F002021C7053
:100FE0000A700025FFF7D0FBDBE705230DF10900B0
:100FF0008DF8083005F0BAFD9DF80930894E0022C1
:1010000003F01F043260032C00F29380DFE804F049
:1010100093BC7165C87803280C46C1D0814E3368F3
:10102000002B00F0DF80002271683260984705468F
:10103000002858D13368002B00F02C81A378002BB6
:10104000B8D105F0B9FDACE7724A1378002BB1D0E6
:10105000724973480B78002523F0020315700B705A
:10106000FFF792FB9DE76B4A1378032B98D06B49EF
:101070006B480B78032423F0020314700B700625D1
:10108000FFF782FB8DE7684B0122DA65BFF36F8FB4
:10109000BFF34F8F8EE75F4A1378022B8AD05F49E8
:1010A0005F480B78022423F0020314700B700025B4
:1010B000FFF76AFB75E7574A1278052A00F0188295
:1010C000042A0AD1594B1F70584901220DF1090019
:1010D000FFF708FF0546062D03D102A8FFF72CFAFB
:1010E0000546002D46D005F07BFD284609B0BDE839
:1010F000F08F9DF80D00020707D002A9FFF706FA4E
:1011000006280546EDD19DF8093013F0600FC3F3B2
:1011100041150ED19DF80A303E4A9DF80D401278D7
:10112000012B00F0CD80032B00F0B980002B00F0E4
:10113000DB800625D7E713F0600FC3F34117CCD14E
:10114000DB0975D19DF80A30032B00F00A81092BC9
:1011500000F0EE80012BC0D1BDF80B30012BBCD1CB
:10116000FFF78AF9002800F07B812C4A137823F0DE
:10117000020313703368002B42D005F03BFD054697
:1011800000287FF417AF5CE79DF80D0005A9FFF775
:1011900097F9044600283AD09DF8141002AAFFF7E8
:1011A000B1F9062805469CD19DF8092012F0600F80
:1011B00099D1184B9DF814101B78D20940F0658125
:1011C0009DF80A200B2A8ED1052B66D1BDF80B3075
:1011D000FF2B00F247819DF80B202046FFF7EAF92C
:1011E00005467EE70E257EE70C490D480A78042463
:1011F00022F002021C700A700625FFF7C5FAD0E63D
:1012000005F0E4FC0025CCE62846FEF717FA102589
:1012100069E700BF3808002060080020540800205B
:10122000102F0600580800200070024064080020BB
:101230009DF80A20062A00F0A380082A3FF43BAF5D
:10124000002A7FF44AAFBD4ABD4F12783B80900719
:1012500044BF03233B70BDF80F30022B1C4628BF50
:101260000224022B00F23881002300200793CDE9ED
:101270000574FEF7DBF905A98020FFF773F9054631
:10128000002800F0DF800020FEF7D8F9062D7FF45B
:101290002AAF22E705F09AFC83E6082523E7270713
:1012A0003FF547AFBDF80B30002B7FF442AF250769
:1012B0003FF43FAF052AF0D1204605F0E1FB59E7A6
:1012C00020073FF536AFBDF80B30002B7FF431AF70
:1012D00021073FF42EAF052ADFD1204605F036FC6A
:1012E000204605F0D9FB45E7052A01D02307D4D1D4
:1012F000204605F009FCBDF80F30914F022B1C462B
:1013000028BF0224022B388000F2D78000200795E6
:10131000CDE90574FEF78AF905A98020FFF722F9C7
:101320000546002800F08E800020FEF787F9DAE6F7
:10133000844C2378043B012BAFD89DF80B30002B55
:1013400000F09280012B40F08D80FFF779F923782F
:10135000052B3FF40FAF05237B482370FFF714FAEA
:1013600008E7BDF80B30012B7FF4B7AEFFF784F828
:10137000002875D0714A137843F002031370F9E620
:101380009DF80C30022B12D0032B00F0B480012BFF
:101390007FF4A3AEBDF80F30002B3FF431AF6B49A3
:1013A00012220DF10900FFF79DFD054693E6BDF8F9
:1013B0000F30002B3FF424AF092B28BF0923994697
:1013C000FFF778F84FF0090A0546B8B105974FF0D6
:1013D000000801E008F101086A680123D2F804B0AE
:1013E0002946002205A8D8470028F3D12A682B7A7D
:1013F00015681C44C244E4B2002DE7D1504F544953
:101400004A46384615F062FC3C71A7F802A0FFF787
:1014100033F818B1FB7943F02003FB71FFF74AF86A
:101420004C4B1860BDF80F20DA600020C3E9017949
:10143000FEF7FCF848498020FFF7A8F80546002889
:101440007FF421AF05F0D6FB80287FF4DDAE434B5F
:1014500093E8030086E803002846FEF7EFF889E6E4
:101460000F2540E607253EE6FFF74CF92378042BCD
:101470003FF480AE314A34481378042123F002034C
:1014800021701370FFF780F974E69DF80A70002F41
:1014900047D00A2F7FF427AE052B7FF4FEAE2046FF
:1014A0000192FFF7C7F82649019A03460B700DF128
:1014B0000900FFF717FD054613E6802005F09CF8AC
:1014C0000225B5FBF0F505FB00F0A0F1020CDCF104
:1014D000000545EB0C0519E7802005F08DF8022387
:1014E000B3FBF0F300FB03F3991E4B424B41BCE608
:1014F000134A1370E8E5BDF80F30002B3FF480AEBF
:10150000BDF80D109DF80B0000F0A0F80146002872
:101510003FF4E3AD02780DF10900FFF7E3FC054667
:10152000D9E5052B7FF4B9AE054902220DF109007A
:101530000F80FFF7D7FC0546D3E500BF5408002015
:101540006408002038080020102F0600342F060001
:10155000142F06003C080020502F0600482F0600DC
:1015600038B505460C4605F045FBA84207D194E87E
:101570000300044A002382E80300184638BD102304
:10158000184638BD5808002008B1402303600148C0
:10159000704700BF6408002000B54FF0805287B04C
:1015A000D2F8A830D2F8A40000906FEA83436FEA23
:1015B0009343244A9BB20D2102A815F04DFB02A8CB
:1015C00015F029FCD0B3204B9DF808201A70012893
:1015D00034D09DF809205A7002282FD99DF80A208E
:1015E0009A7003282AD99DF80B20DA70042825D98F
:1015F0009DF80C201A71052820D99DF80D205A71EC
:1016000006281BD99DF80E209A71072816D99DF837
:101610000F20DA71082811D99DF810201A720928B4
:101620000CD99DF811205A720A2807D99DF812206A
:101630009A720C2804BF9DF81320DA7207B05DF887
:1016400004FB00BF582F0600A408002090B3012817
:1016500009D0022807D0032805D0042803D0052884
:1016600001D000207047174B03EB4000407840B397
:10167000154B10B553F82040F4B123780BB9A01CDA
:1016800010BD0020FFF780FF2178B9B12246C4F1D8
:10169000010C02EB0C03DCB2234620F8141012F804
:1016A000011F0029F5D101335B00DBB243F4407325
:1016B000038010BD05487047204610BD40F202333C
:1016C000F6E77047D02F0600B82F0600662F0600F9
:1016D000CA6943609A420FD310B48C690460086FE2
:1016E000D21A1C440344101E8C6118BF01205DF8FF
:1016F000044BCA610B67704701F1280202600020A9
:101700008B677047CA6943609A4205D38A69026051
:101710000B67CB610020704701F1280202608B67E4
:1017200000207047F0B5046891F808E0002C00F044
:101730004884A4F2133CBCF17C0F00F28280BCF11F
:101740007C0F7ED8DFE81CF0C900E602D1021B0343
:1017500048012303F50214037D007D007D007D0018
:101760007D007D00C00318027D007D007D007D00AE
:101770007C037E026D027D007D007D0082030303F9
:1017800081007D007D007D007D00BC03860281001C
:101790007D007D007D007D007D007D00D0037D000B
:1017A0007D007D007D006B03960199027702CA02DD
:1017B0007D007D00C302D802BC02090202027D0046
:1017C0007D00FB012A035701A0037D007D00FC0280
:1017D0009403DF02B603EE027D007D007D007D00F4
:1017E0007D007D007D007D007D007D007D007D0011
:1017F0007D007D007D007D007D007D007D005A0321
:10180000A0027D007D007D000F017D007D007D0038
:101810007D00AE037D007D007D007D00A6037D0080
:101820007D007D007D007D007D007F0350017D00F7
:101830007D007D007D00B8007D007D007D007D0085
:10184000B800002303601846F0BD002A00F0A6840B
:10185000047915464FF0010C2C7000249C4504714E
:1018600080F04C830CF1010412B1057902F80C50A0
:10187000BD4D91F814C02D682E78B44500F0438317
:10188000BA4E6D783570BA4E4FF0000C86F800C035
:10189000AC45C0F02D83B74D95F800C00CF1010C9C
:1018A0005FFA8CFC85F800C0E64500F2398340F20F
:1018B0009A3303600120F0BD012400250AB10679A6
:1018C0005655AB4EA94D96F800C02D780CF1010C81
:1018D0005FFA8CFC86F800C0DAE7002A00F0738417
:1018E00004791470012B4FF00B04047140F2AE84A4
:1018F000032502260127D455B3420C7D047140F222
:10190000D8839455AB424FF00204047140F2C28375
:1019100005F1010C545563454FF00204047140F287
:10192000AA830CF1010602F80C40B3424FF0020406
:10193000047140F28A83751C9455AB424E7E067149
:1019400040F271836C1C5655A3424FF0000505719F
:1019500040F25F83161901343570864D4FF0000C4C
:1019600085F800C0A0E7804C0125266800241AB144
:1019700090F804C002F804C034780E7DA64200F04E
:10198000FA828E7DA64200F0AD834024AB42047102
:1019900040F2C1826C1C002A00F0D98206795655AB
:1019A000A3424FF00005057140F2C18216190134BF
:1019B00035706D4D0E7D2D682D78AE4200F0BC82E5
:1019C0008E7DAE427FF47DAF0025A342057140F2CB
:1019D0008A842546013471E7002A00F046840479A0
:1019E00001264FF0000C9EE7002A00F04B84057999
:1019F00016460124DCE7002A00F057840679944655
:101A000001240225A3428CF80060057140F2BB82DC
:101A10002E46651C1655AB424FF00504047140F28A
:101A2000CB82264602EB050C6C1C2425A3428CF8C5
:101A30000060057140F2BB822E46651C1655AB4214
:101A40004FF00604047140F2AD825619013534702E
:101A50000E7D0671AB4240F2A0826C1C5655A3422B
:101A60008D7D057140F294821619013435703E4D1A
:101A70002D6805E7002A00F0FA83047901264FF06B
:101A8000000C02F80C40B3424FF00004047140F225
:101A90000683751C9455AB424FF01004047140F25C
:101AA000EF826E1C5455B3424FF00104047140F2B2
:101AB000D18235199455AB424FF00504047140F2C0
:101AC000B7826E1C5455B3424FF02404047140F2A7
:101AD000A582751C9455AB424FF00104047140F28D
:101AE00093822E195455B3424FF00304047140F20F
:101AF0008682751C9455AB428E7D067140F27A82C7
:101B00006C1C5655A3424FF00405057140F26D82DE
:101B1000161901343570A3424FF02405057140F2C7
:101B20005F822E46651C1655AB424FF002040471CD
:101B300040F25182264602EB050C6C1C61E7002A3C
:101B400000F0CD83057916460124E3E7002A00F072
:101B5000C883067901240025D3E7002A00F0B0836A
:101B6000047901250026C5E7B4080020B10800204B
:101B7000B3080020B2080020002A00F098830479FE
:101B80001646012534700E7ABC4C2478B44280F09D
:101B9000BC8304EB440401F10906B94F16F804C0F4
:101BA00080F804C03444AB423C6040F27D826C1C3F
:101BB000002A00F0838206795655A3424FF00005B3
:101BC000057140F2628204F1010C1555AC4C256898
:101BD00063456C78047140F2498202EB0C060CF10B
:101BE000010C34702C780D7DA54200F026828D7D8D
:101BF000A5427FF432AE0A246345047140F27D832E
:101C00000CF10104002A00F07A82057902F80C50E8
:101C1000A3424FF00005057140F2138304F1010C5B
:101C20001FE0974C2568002A00F0298304791646A6
:101C30004FF0010CD5E7002A00F03C83047901261F
:101C400000252FE7002A00F03D8305794FF0010CB5
:101C50000024BAE7002A00F0318305794FF0010C27
:101C60000024155563454FF00004047140F2518281
:101C700002EB0C050CF1010CEEE5002A00F02483C8
:101C800004790125002605E7002A00F0268305795E
:101C9000944601248CF80050794D2E68794D96F8C1
:101CA00001C02D78AC4540F22D8396F802C0354432
:101CB000A34215F80C50057140F25881651C56E698
:101CC000002A00F0D6820479012600250AE7002ABE
:101CD00000F0D182047901260025F3E6002A00F005
:101CE000DB82047901250026E4E6002A00F0E48284
:101CF00004790125002604E6002A00F0EA8204792E
:101D000001250026E6E6002A00F0C1820479164685
:101D100001259CE6002A00F0D982047902250126DB
:101D20000027E8E5002A00F0BB8205791646012469
:101D30009CE6002A00F0CF8206790124002502E605
:101D4000002A00F0A2820679944601246DE6002A5A
:101D500000F0A48205794FF0010C002415559C4534
:101D60004C7E047184D340F22F3303600120F0BD18
:101D7000002A00F08E82057916460124ECE5002A3F
:101D800000F0918204794FF0010C0025C2E5002A91
:101D900000F07382047901250026CDE50125002499
:101DA000002A40F09D810224AB42047140F213816D
:101DB0006C1C0225A342057140F2E580651C0524D8
:101DC000AB42047140F2F8806C1C2425A3420571DB
:101DD00040F2ED80651C0624AB42047140F2E280C3
:101DE00001350C7D0471AB4240F2D7806C1C8D7DB7
:101DF0000571A34240F2CC80013438E6012600246C
:101E0000002A00F02C8105791555B3424FF00505E5
:101E1000057140F2A68002EB060C741C3AE74FF005
:101E2000010C0024002A00F07981057915559C45A4
:101E30004FF02404047180F04E810CF1010620E67D
:101E400001240025B4E601240025A4E501244FF077
:101E5000000C002A00F0E781057902F80C509C4242
:101E60004FF00205057180F0A98104F1010C75E7BE
:101E700001250024002AAED00679DFE5B208002053
:101E8000B4080020B308002001250024002A96D0C1
:101E90000679BFE501250026002A3FF476AD0479D6
:101EA000945572E501250024002A3FF46EAD0679B1
:101EB00016556AE501240025002A98D00679CDE55B
:101EC00001244FF0000C9DE601250024002A00F0BB
:101ED000698106791655AB424FF00404047140F253
:101EE0000981561901354DE601244FF0000CBBE481
:101EF0000725A34205712FD9661C81E740F23D33C7
:101F000003600120F0BD05259C42057180F05181E0
:101F100004F1010C86E74FF4617303600120F0BD0A
:101F20000925A342057140F27981651CCEE740F294
:101F3000853303600120F0BD0D6AA3422D78057141
:101F40003FF647AD40F28A3303600120F0BDA34263
:101F50000271ECD901342CE540F26E3303600120AC
:101F6000F0BD40F26F3303600120F0BD40F27333E7
:101F700003600120F0BD0324AB42047140F26B8189
:101F80002C46013590E740F2533303600120F0BD49
:101F900040F25A3303600120F0BD40F25933036030
:101FA0000120F0BD4FF4567303600120F0BD40F2F4
:101FB000573303600120F0BD40F256330360012027
:101FC000F0BD08240471002B7FF487AC40F213337A
:101FD00003600120F0BD40F2523303600120F0BDE8
:101FE00040F2513303600120F0BD4FF4547303609D
:101FF0000120F0BD40F24D3303600120F0BD4FF4ED
:10200000537303600120F0BD40F24B3303600120A5
:10201000F0BD40F21A3303600120F0BD40F24A33B4
:1020200003600120F0BD40F2193303600120F0BDD0
:1020300040F2493303600120F0BD0224634504717E
:1020400040F20E810CF1010403E74FF44673036084
:102050000120F0BD40F2463303600120F0BD0524AD
:10206000B34204717FF67DAF741C15E640F229334C
:1020700003600120F0BD40F2173303600120F0BD82
:1020800040F2453303600120F0BD4FF44A73036012
:102090000120F0BD40F2163303600120F0BD4FF483
:1020A000517303600120F0BD40F22733036001202B
:1020B000F0BD40F2153303600120F0BDA342027170
:1020C000E3D90134934D2D68A3426E780671CDD9C2
:1020D00004F1010C86E540F2433303600120F0BDBA
:1020E000067920E50224AB42047140F201812E46BC
:1020F0000135D1E640F2223303600120F0BDA34256
:10210000027140F29E8001340025A342057100F265
:10211000948040F2363303600120F0BD24249C45B6
:102120000471D8D20CF101040025A3420571B6D97F
:1021300001341025A3420571A2D901340125A3421F
:10214000057187D92C440525A34205717FF670AF30
:1021500001342425A34205717FF660AF01340125C7
:10216000A34205717FF650AF2C440325A3420571AD
:102170007FF645AF01348D7D0571A3427FF63AAFFE
:1021800001340425A34205717FF62FAF01342425C5
:10219000A34205717FF624AF651C04E64FF0010CE5
:1021A000FFF75BBB0424AB420471A3D90E7A01355F
:1021B000EAE440F2423303600120F0BD40F22E33E6
:1021C00003600120F0BD0B24012B04713ED90324D0
:1021D00002250E7D0671AB427FF66BAF0225A3424E
:1021E00005717FF657AF01340225A34205717FF6D2
:1021F00042AF01340225A34205717FF626AF0134B8
:102200004D7E0571A3427FF60EAF01340025A34237
:1022100005717FF6FEAE0134FFF79FBB40F221331C
:1022200003600120F0BD02259C420571C6D2013435
:102230004D7E0571A3427FF696AD04F1010CFFF7C8
:102240000CBB40F2353303600120F0BD4FF4457301
:1022500003600120F0BD4FF45E7303600120F0BD08
:1022600040F22D3303600120F0BD0124C2E70124B8
:102270005AE7012479E701246BE70124C0E74FF016
:10228000010CAFE40124FFF794BB01249DE5012577
:10229000A7E50124FFF761BB012454E70124C7E748
:1022A0000124FFF7E4BB01249EE7012481E5764683
:1022B000012569E4012441E701248FE7012423E794
:1022C000012458E70124FDE6012432E70224012518
:1022D0007FE7012443E7012498E70124DCE401249B
:1022E00055E701244DE740F28F3303600120F0BD34
:1022F00040F27D3303600120F0BD4FF44D73036065
:102300000120F0BD00231B78FFDE024A002313608A
:102310001B78FFDEB408002070B90B681A7B202AF6
:1023200001D006207047D3F80EC0598A1A7DC3F831
:1023300018C099839A777047032070472DE9F047BA
:102340000B7888B00C4605460E2B14D8DFE803F056
:10235000081C0808130D2C1313181308080808008C
:102360000024204608B0BDE8F0874B78DA0934D164
:102370005B09012B51D00624204608B0BDE8F08748
:10238000C3690BB1032198472B68002403F1340281
:102390002046C3E91E44C3E920441C845C62DC621D
:1023A0005A6708B0BDE8F087027A002A00F065811C
:1023B000837A0930002B00F05E818B78E97A415CEA
:1023C0009942CDD01B061FD4E77807F0FD03012BFF
:1023D000C6D0002F66D00324C3E713F0600FC3F309
:1023E000411200F09580012AC5D18B78212BC2D1F2
:1023F000B1F80720072ABED10168601C183108B067
:10240000BDE8F047FEF76EBDE478002C00F0A08038
:10241000032C14BF03240024A3E78B780668202B29
:1024200000F09E80222BA6D1B1F80730002BA2D15C
:10243000B1F80330328C338403F0010702F001025B
:10244000BA428DD0C3691BB1C7F10301C9B2984725
:10245000002F85D12B7A012B40F20B816B7B05F18C
:102460000C08002B00F00381AB7B18F8030003F08D
:1024700051FB2B7A012B40F2FC806B7B012B40F24D
:10248000F680AB7B98443C4698F8010003F042FB91
:1024900006F13403C6E91E77C6E920777762F76252
:1024A00073675EE72E68012A06F10C0100F0E180F7
:1024B0006A7B012A05F10C0340F2D980AA7BB46A39
:1024C0000691134493F801806D4B0593002C61D164
:1024D000F36FC6F88030F36AC6E91E44002B00F0A3
:1024E000B78006F12C0393E8030006F1240383E888
:1024F00003000023F36205A94046FEF747F80446AF
:10250000EB69002B3FF42DAF00212846984728E7C0
:1025100003F01F03012B7FF42EAF8E78062E7FF47D
:102520002AAF05A80392FFF72FF803AB00930746E5
:10253000E278217928463B46FDF7EAFD05283FF47D
:102540001AAF601C039A3946FEF7CCFC044608E734
:10255000EB69002B3FF404AF01212846984700E7C0
:10256000B1F80730072B7FF406AF4FF4E462B28175
:1025700000200E36CDE905630790FDF757F805A951
:102580000020FDF7EFFF0446002868D00020FDF78B
:1025900055F8E6E6D6F884A0706A544528BF54463C
:1025A00006F1340C22466146E14614F08FFBF26FCF
:1025B000F767AAEB040309EB040C1444F26AC6F8AB
:1025C0008040C6E91DC3002A45D006F12C0797E8D4
:1025D000030006F124044FF0000984E80300C6F864
:1025E0002C90F3B92EE0706A614614F06FFBB26A6A
:1025F000B36FC6F880209B1AB367736F1344736779
:10260000EB6913B1002128469847F36A23B397E892
:102610000300B36F84E80300C6F82C9093B1D6F89A
:1026200074C0B26A9A42DED91A46706A614614F0E2
:102630004DFBB26FB36AF2679B1AB362736A1344BD
:10264000736253B105A94046FDF7A0FF044657E762
:102650000023736254E700237362002450E7094BA0
:1026600003A9CDE90335FEF77BFF04468EE73B78EF
:10267000FFDE7B78FFDE1B78FFDE5378FFDE00BFD6
:10268000D1160200192302000368B3F820C01CF021
:10269000010F18D00B46017A012918D9417B00F1AE
:1026A0000C0C91B110B5817B84B01CF8010091062F
:1026B0000CBF0124002401A9CDE901320394FDF7E8
:1026C00051FF04B010BD082070470B78FFDE0023D7
:1026D0005B78FFDE0368D3F880007047F0B50468CC
:1026E000238CDB0783B022D50546002016460F4613
:1026F000FCF79CFFA26F42B9636AE3B1112400208A
:10270000FCF79CFF204603B0F0BD964228BF16465A
:10271000616F3246384614F0D9FAD4E91D32921B63
:102720003344C4E91D32C4F880600024E7E708247C
:10273000204603B0F0BDC4E909762A7A012A12D9ED
:10274000697B012905F10C020FD9AB7B084D1344BD
:102750000C3458786946CDE90054FDF717FF041E84
:1027600008BF9224CBE75B78FFDE1B78FFDE00BF5B
:102770000517020010B50C4B0C4C027853F82130B1
:1027800054F8211086B08DF80420D0E9014202945B
:102790008DF80C20D0E9034201A804948DF8142090
:1027A000984706B010BD00BFC8080020B808002038
:1027B0002DE9F04F844617481CF8045BD1F80090CF
:1027C00091F804804F798E68B1F80CB0DFF850A012
:1027D0001446002A40F825400F4A104840F825309A
:1027E0000FCA85B0EE468EE80F000CBF2246524657
:1027F0002B4671466046CDF800908DF805808DF827
:1028000006700296ADF80CB000F0AEFE05B0BDE863
:10281000F08F00BFC8080020F02F0600B808002085
:102820007527020010B568B90E4CA36801226270CA
:102830003BB1D3E900230020A2609847A368002B96
:10284000F7D110BD0128FCD1064C2369A070002BE4
:10285000F7D0D3E900230120226198472369002B98
:10286000F7D110BDD8080020014B1878704700BF81
:10287000D808002010B50D4C237882B043B18520D4
:102880000B4BD3F800340BB10123A37002B010BD81
:1028900008486360A3602361E36002F039F90190A6
:1028A00002F042F9012301982370E9E7D8080020DB
:1028B000000001402528020038B5154DAB780446CC
:1028C00073B110B14368012098470020FCF7AEFEB9
:1028D000EB680133EB600020BDE83840FCF7AEBE8A
:1028E00003F0FF00FCF7A2FE64B12A6942B19442F2
:1028F00008D0134601E09C4204D01B68002BFAD19B
:1029000022602C61EB68002BE2D102F023F9DFE7B3
:10291000D808002038B5154D6B78044673B110B156
:102920004368002098470020FCF780FE6B68013365
:102930006B600020BDE83840FCF780BE03F0FF006C
:10294000FCF774FE64B1AA6842B1944208D0134601
:1029500001E09C4204D01B68002BFAD12260AC60DD
:102960006B68002BE2D102F007F9DFE7D8080020FE
:1029700038B50B4C0020FCF759FE6368013B6360DF
:10298000656825B1BDE838400020FCF757BE02F06D
:1029900003F965700020BDE83840FCF74FBE00BF6A
:1029A000D80800204FF08043D3F80C0400F0011049
:1029B000A0F10110B0FA80F04009704710B5074C43
:1029C00023784BB9064B002808BF184601F05CFF7E
:1029D00008B90123237010BD852010BDEC0800202C
:1029E0000030060000B583B0019001F079FF01F0DE
:1029F0007FFF019801F066FF01F06AFF002003B03D
:102A00005DF804FB30B50A4B0A4C53F8213054F8FA
:102A10002110027885B0D0E901548DF80020C268F9
:102A200001958DF8084003926846984705B030BD7F
:102A3000F8080020F008002030B50A4B0A4C53F883
:102A4000213054F82110027885B0D0E901548DF876
:102A50000020C26801958DF80840039268469847A7
:102A600005B030BDF8080020F0080020F0B5184B84
:102A7000067843F82620174B0446487F985515469C
:102A8000154A8E46096942F8261022789F5CBEE8F6
:102A90000F0089B0EC46ACE80F009EE80F008CE810
:102AA0000F0004964FB1002D0C4A694608BF2A4614
:102AB000201D01F001FD09B0F0BD002D084A694656
:102AC00008BF2A4604F10C0001F046FA09B0F0BD37
:102AD000F808002000090020F0080020052A020064
:102AE000392A020030B5234C94F8553083B0002BBE
:102AF0003DD140F2FF304FF0FF0C5A09012A18BFB8
:102B00004FF0FF3103F01F0208BF014621FA02F225
:102B1000D20748BFE21803F1010348BF82F824C07E
:102B20002A2BEAD14FF0FF352022FF2112482560E1
:102B300014F0F5F81149124B84F84E500020E022B1
:102B4000C4F84F00888083F8062340221A600D4B9A
:102B5000C3F87C01D3F87C110191019D4FF0004234
:102B6000012184F85510C3F8042303B030BD0820B8
:102B700003B030BD040900200809002053090020DB
:102B800000E100E000600040034B93F8550000387E
:102B900018BF0120704700BF0409002070B55C4BCE
:102BA00003EB000C9CF924E0BEF1000F01DB0820D0
:102BB00070BD8C78A60721D51C68013400F0A18077
:102BC0005C68013400F081809C68013400F08780EB
:102BD000DC68013400F086801C69013400F08580D7
:102BE0005C69013400F084809C69013400F08380CA
:102BF000DC69013400F08280042070BD1C6A01345D
:102C0000FAD11A6208228CF8242083F84E009446E8
:102C10008A7854071DD4D50748D51F2887BF3D4A59
:102C200000F01F0404464FF0A04202EB8402D2F8E9
:102C3000004724F00204C2F80047374DC40800F0F2
:102C4000070615F804E00122B24042EA0E022A55B6
:102C50008A7812F002021CD04FEA8C0303F1804301
:102C600003F5C0430978D3F8104524F44F3424F415
:102C70004074C3F8104502020904D3F8100501F4AA
:102C8000403102F47C520A430243C3F8102500206D
:102C900070BDACF1080C43FA8CF30C7893F84E102D
:102CA000104641EA841283F84E2070BD1F284C78EC
:102CB00087BF184D00F01F0202464FF0A04502F5F5
:102CC000E072A40045F82240B7E74FF0010C43F84A
:102CD0002C201A184FFA8CFC82F824C098E74FF089
:102CE000020CF4E74FF0030CF1E74FF0040CEEE7B1
:102CF0004FF0050CEBE74FF0060CE8E74FF0070C40
:102D0000E5E71A6000228CF82420944680E700BF93
:102D100004090020000300505309002010B4334C74
:102D2000231883B093F92430072B25DD083B44FAA0
:102D300083F393F84E309B09032B46D0012B0CBF35
:102D40004FF400324FF440321F288ABF284B4FF017
:102D5000A04300F01F0003EB8000D0F8003723F4FD
:102D60004033C0F80037D0F800371A43C0F80027C6
:102D700003B05DF8044B7047DAB2072AF8D89A001E
:102D800002F1804202F5C042D2F8100540F0010085
:102D9000C2F8100503F1400252B2920092B202F161
:102DA000804202F5C0420020106012680192019A30
:102DB0000029DDD054F82320002AD9D00D49012262
:102DC00002FA03F3C1F80433D2E71F288ABF084A86
:102DD0004FF0A04200F01F03D2F8102598BF034621
:102DE000DA4002F0010202321204ADE704090020C9
:102DF0000003005000600040194B034493F9243055
:102E0000072B13DD1F288ABF164B4FF0A04300F09D
:102E10001F0003EB8000D0F8003723F44033C0F8E4
:102E20000037D0F80037C0F800377047DAB2072A09
:102E300014D89A0002F1804202F5C04210B4D2F8D0
:102E40001005094C012120F0010001FA03F3C2F83A
:102E50001005C4F808335DF8044B7047704700BF95
:102E60000409002000030050006000401F288ABFB2
:102E7000054B4FF0A04300F01F00D3F8103523FAA4
:102E800000F000F001007047000300502DE9F0470A
:102E9000002384B0CDE90233B04AD2F800110129F1
:102EA00000F04C811E46AD4BD3F80421012A00F0FE
:102EB0003681AA4BD3F80821012A00F02181A74BC3
:102EC000D3F80C21012A00F00C81A44BD3F8102177
:102ED000012A00F0F780A14BD3F81421012A00F059
:102EE000E2809E4BD3F81821012A00F0CD809B4B45
:102EF000D3F81C21012A00F0B880984BD3F87C212C
:102F0000012A20D0E6B1964F01250024A30003F149
:102F10008043354203F5C0434FEA45050BD0D3F853
:102F2000100557F82420D3F81015C0F30520C1F37D
:102F3000014102B190470134082CE7D1002E1BDB80
:102F400004B0BDE8F0870022C3F87C21D3F87C31BF
:102F500001934FF0A042019BD2F82015814B0291C2
:102F6000C2F82015D3F82025039246F00041C3F89B
:102F70002025002E40F0EF80794F7A4C01264FF04B
:102F8000A04597F94E00431C56D0C0F3C20202F18F
:102F900010030DEB030200F0070312F8082C06FAE9
:102FA00003F31A42C1B200F03F0036D01F2887BF9A
:102FB00001F01F02A64602464FF0A04E0EEB820320
:102FC00007EB000CD3F80097D3F8008728F44038BB
:102FD000C3F80087C9F301499CF92480D3F800C7DE
:102FE00057F82880B9F1020F0CBF4FF4403A4FF464
:102FF000003A06FA02F24CEA0A0CC3F800C7CEF80F
:103000002025B8F1000F08D08909032927D0B9F18C
:10301000020F22D0B9F1030F23D0D5F82025029258
:10302000C5F82025D4F820350393C4F82035134380
:10303000A7D104B0BDE8F0874A494FF0A040D0F8CE
:1030400020250292C0F82025D1F820350393C1F83D
:10305000203513433FF474AFF1E70129DDD1C047B8
:10306000DBE70229D9D1C047D7E7D3F804231206FA
:103070007FF543AF0022C3F81C21D3F81C31009325
:10308000009B46F0800638E7D3F8042351067FF50D
:103090002EAF0022C3F81821D3F818310093009BFB
:1030A00046F0400623E7D3F8042390067FF519AFD6
:1030B0000022C3F81421D3F814310093009B46F08A
:1030C00020060EE7D3F80423D4067FF504AF0022D0
:1030D000C3F81021D3F810310093009B46F010067E
:1030E000F9E6D3F8042315077FF5EFAE0022C3F805
:1030F0000C21D3F80C310093009B46F00806E4E65F
:10310000D3F8042357077FF5DAAE0022C3F808216D
:10311000D3F808310093009B46F00406CFE6D3F8BD
:10312000042392077FF5C5AE0022C3F80421D3F82B
:1031300004310093009B46F00206BAE6D2F804631D
:1031400016F001063FF4AFAEC2F80031D2F80031FC
:103150000093009BA7E60E46D5E600BF0060004046
:10316000040900200003005030B51F4C437944F897
:1031700023201E4C03EB4302A25C9ABB90F904206F
:1031800091F802C0002A21DB194D4FEA4C1CAB1804
:103190005FFA8CFC83F800C301234FEA521C02F053
:1031A0001F0203FA02F245F82C2043794FEA430E3E
:1031B00000680D88C0F808557344E218087950700B
:1031C0000120C978E0549170002030BD094D02F013
:1031D0000F024FEA4C1C5FFA8CFC05F802C04FEA64
:1031E000430EE5E7082030BD600900205C0900209F
:1031F00000E100E014ED00E090F90430002B10B481
:103200000DDB5A090E4C0121203203F01F0301FA95
:1032100003F344F82230BFF34F8FBFF36F8F03687F
:10322000084A01215960C3F84823C3F808234379A9
:10323000054A03EB43030021D1545DF8044B70476A
:1032400000E100E003000F005C0900200368044A6D
:1032500001211960437903EB43030221D1547047E4
:103260005C0900200368044901225A60437903EB9A
:103270004303CA54704700BF5C090020F0B50468DE
:10328000204E4FF480358D40C4F84853C4F808539D
:10329000407900EB400CB44483B09CF8017022F0FC
:1032A0007F42DFB101F5A8774FEA400C44F82720B0
:1032B0006044D4F804750644A7EB020EBA4288BFF6
:1032C0000EF1FF1EB27888BF0EF57F4E964516DBD5
:1032D00053B90020C4F8445303B0F0BD01F5A87001
:1032E00044F82020002BF4D05031890089B200230B
:1032F000635063580193019BC4F80453E9E70D2020
:1033000003B0F0BD5C09002003680122C3F8482324
:10331000C3F80823704700BF2DE9F041274E284F1E
:10332000DFF8A08084B000244FF48035D6F8043351
:103330002B4211D057F824300022E0B263B1C6F816
:103340004853C6F8085347F8242057F8242003921E
:10335000D8F80030039A98470134032C4FEA45050A
:10336000E4D1164BD3F80423D10702D5D3F80021BA
:10337000C2B9124BD3F80423920710D5D3F8042115
:103380006AB10022C3F80421D3F804210D4B019245
:10339000019A1B68052004B0BDE8F041184704B04D
:1033A000BDE8F0810022C3F80021064AD3F80031BD
:1033B000029304201368029A9847DAE700B00040AD
:1033C00040B1004060090020204AD2F818317BB398
:1033D00010B41F4B4FF080401C681E4BC0F8004ECD
:1033E0000021C2F81811D2F8181193F8672083B0A1
:1033F000FF2A019101990ED093F86610C9B11F2AD6
:103400008ABF15484FF0A04002F01F02012101FAC7
:1034100002F2C0F80C25D3E9124100220F4883F8CC
:10342000652083F85020234603B05DF8044B18470D
:1034300070471F2A8ABF08484FF0A04002F01F02C1
:10344000012101FA02F2C0F80825E4E700F0024089
:10345000640900206809002000030050B80900201A
:103460001D4AD2F818314BB310B400211B4BC2F8DF
:103470001811D2F8181193F8432083B0FF2A019154
:1034800001990ED093F84210C9B11F2A8ABF14487F
:103490004FF0A04002F01F02012101FA02F2C0F831
:1034A0000C25D3E9094100220E4883F8412083F816
:1034B0002C20234603B05DF8044B184770471F2AA1
:1034C0008ABF07484FF0A04002F01F02012101FA15
:1034D00002F2C0F80825E4E7003002406809002045
:1034E00000030050940900201B4AD2F818312BB376
:1034F00010B40021194BC2F81811D2F81811DA7F54
:1035000083B0FF2A019101990DD0997FB9B11F2A8B
:103510008ABF13484FF0A04002F01F02012101FAB8
:1035200002F2C0F80C25D3E9004100220D485A7779
:103530001A72234603B05DF8044B184770471F2AE0
:103540008ABF07484FF0A04002F01F02012101FA94
:1035500002F2C0F80825E6E70030004068090020C4
:1035600000030050700900202DE9F04F05799F4EAF
:1035700005EBC509924606EB890285B00C46117F22
:1035800000929B46EB000193002940F0F180D0F8B7
:1035900000809749074651F82510404601F048FB46
:1035A000002840F00A814FEA8909009A46F809A0EC
:1035B000C2F804B094F80CC02278BCF1010F40F2BC
:1035C000C9801F2A87BF8B4B02F01F0991464FF01D
:1035D000A043012101FA09F1C3F808151F2A8BBF86
:1035E00002F01F011146834B4FF0A04301F5E0713B
:1035F0004FF0010943F821906178FF2900F0CB805A
:103600001F290B4688BFDFF8ECE1009196BF4FF011
:10361000A04E01F01F0119464FF0010909FA01F906
:1036200001F5E071CEF80C954FF003094EF82190AA
:10363000A178FF2900F0B6801F298ABF01F01F0E74
:103640008E46DFF8B091019198BF4FF0A0490EF57A
:10365000E07E4FF0040B49F82EB0EB0003EB050EB3
:1036600006EB8E0E8EF82010E1788EF81F10FF29E1
:103670002BD094F804B08946BBF1000F7CD11F29F0
:1036800040F2AE805B4B039301F01F0302934FF0B7
:10369000010E0EFA03FE039BC3F808E51F294FEA4B
:1036A000C50388BF01F01F0903EB050106EB81018B
:1036B00088BFDFF840E181F81EB098BF4FF0A04E00
:1036C00009F5E07903214EF82910009BC8F8082578
:1036D000C8F80C35A268019BC8F81035C8F8242535
:1036E000627B003A18BF0122BCF1020F6FD0BCF11F
:1036F000030F69D0BCF1010F63D0C8F85425A2793B
:10370000C8F8C0250722C8F80025BAF1000F16D066
:103710003A68617942F30734002C4FEA123245DBF4
:10372000354F490107EB040CC9B28CF80013012195
:10373000640902F01F0201FA02F247F82420EB00AC
:103740002B4406EB8306002201237277337705B002
:10375000BDE8F08F1F2A87BF264B02F01F09914654
:103760004FF0A043012101FA09F1C3F80C1535E728
:10377000082005B0BDE8F08F1F292BD91D4B0393FE
:1037800001F01F0302934FF0010E0EFA03FE039B9C
:10379000C3F80CE582E7A1784FF0FF33FF290093CF
:1037A0007FF44AAF4FF0FF33019356E7134C02F01A
:1037B0000F024901C9B2A154C1E7112005B0BDE80B
:1037C000F08F42F0020298E742F0060295E742F0DD
:1037D000040292E74FF0A043039302910B46D2E715
:1037E0004FF0A043039302910B4650E76809002075
:1037F000043006000003005000E100E014ED00E09A
:10380000F8B50479284D04EBC40292000346A95888
:103810000068E600F9B140F3073100294FEA10379C
:1038200011DB4909DFF88CC02031012007F01F07A8
:1038300000FA07F74CF82170BFF34F8FBFF36F8F7B
:10384000AA5818683AB1194BC0F80833331905EB78
:1038500083035B7FE3B9331905EB830393F82030CF
:10386000FF2B0BD01F2B86BF03F01F0310494FF017
:10387000A04103F5E073022241F8232034440027DD
:1038800005EB8404C0F8007501F0F0F92777F8BD66
:1038900001234361D0F80431002BFBD0331905EB31
:1038A000830300225A77D6E76809002052010800F6
:1038B0000003005000E100E02DE9F04704797C4D61
:1038C00004EBC403944605EB83028E46517F82B01D
:1038D000002940F0A9809B000646EB584FEAC40837
:1038E00023B11CF0140F04BF0123537708EB040726
:1038F00005EB87079EE80F0097F81FA007F10C095A
:10390000BAF1FF0F89E80F000FD0BB7F002B74D0F6
:10391000BAF11F0F8ABF674A4FF0A0420AF01F0A90
:10392000012303FA0AF3C2F80835DEF8002022B1B9
:1039300002F06043B3F1005F6DD1DEF8081021B1F1
:1039400001F06043B3F1005F65D133685A4EDEF891
:103950000400DEF80C70C3F84425B342C3F84805F0
:10396000C3F83415C3F8387562D00022C3F81821A3
:10397000D3F818210192019A1CF0010218BF01220C
:10398000C3F850251CF0020218BF01221CF0080FDA
:10399000C3F8402504BF01221A6108EB040255F860
:1039A000222062B11CF004004FF040021ABFC3F89D
:1039B00008230020C3F8042302B0BDE8F087D3F841
:1039C0001821002AFBD03C4A93426AD0444405EBBC
:1039D0008405EB7FFF2B62D0AA7F002A4AD01F2BE1
:1039E0008ABF34494FF0A04103F01F03012202FABD
:1039F00003F3C1F80C350020DEE7BAF11F0F8ABFD0
:103A00002C4A4FF0A0420AF01F0A012303FA0AF3DE
:103A1000C2F80C3589E7444405EB840500231020E7
:103A20006B7702B0BDE8F087112002B0BDE8F087E7
:103A30004FF08041D1F8006E20490E60002894D0EC
:103A40001F4E22F4FF5121F01F01B14220D8C1F3D3
:103A50004F3602440120B0401A4F002601E0B9421F
:103A600018D201F500518A4246EA00064FEA4000AA
:103A7000F5D80FE01F2B8ABF0E494FF0A04103F08D
:103A80001F03012202FA03F3C1F80835002093E76F
:103A90004FF480764FF08042C2F8006E65E7002058
:103AA0008AE7064A4FF080431268C3F8002E8DE77C
:103AB000680900200003005000F002406409002063
:103AC000FFFF002000200120F0B590F804E0354E03
:103AD0000EEB4E0306EB830483B0257A002D5CD1F8
:103AE0009B004FEA4E07F2504B6863604379002B0E
:103AF00056D00468013BDBB204F5A27C0CEB830CCE
:103B000004F5A0731D6053F8042B01929C45019AA3
:103B1000F8D144F30732002ACB784FEA143535DB6D
:103B2000214C5B0104EB020CDBB28CF80033012367
:103B3000520905F01F0503FA05F544F82250046800
:103B4000D4F804254B7822F0030203F00303134357
:103B5000C4F80435D4F808258B7822F0030203F06A
:103B600003031343C4F808350B78D4F810257744C1
:103B700006EB870622F00F0203F00F030125002059
:103B800013433572C4F8103503B0F0BD074A05F091
:103B90000F055B01DBB25355D2E7082003B0F0BD3F
:103BA0000468B6E7D409002000E100E014ED00E06D
:103BB000036843F30732002A30B40FDB190B5209B4
:103BC000104C0123203201F01F0103FA01F144F8E7
:103BD0002210BFF34F8FBFF36F8F0368D3F80052EB
:103BE00000214FF0FF340122C3F80012C3F808434C
:103BF0001A610379044A03EB430302EB830319724E
:103C000030BC704700E100E0D40900200368054A99
:103C100001211960037903EB430302EB83030221C3
:103C200019727047D40900200368054A01211961FF
:103C3000037903EB430302EB83031972704700BF60
:103C4000D40900200379064A03EB430302EB830304
:103C5000187AA0F10200B0FA80F04009704700BF66
:103C6000D40900208B0040330268DBB20120D05021
:103C700001F5A87152F82100704700BF006830B408
:103C800040F2011CD0F800420CFA01FC24EA0C04BA
:103C9000C0F80042D0F8004282B023439DF8105093
:103CA000C0F800324FF480338B4085B18C0004F5AE
:103CB000A0740025055104590194019CC0F80433F7
:103CC00001F5A87140F8212002B030BC7047C0F85F
:103CD0000833F5E72DE9F041114D124FDFF8488028
:103CE00082B000244FF480362B6806FA04F20134C7
:103CF0007BB1D7F80433A5F500401A424FF000011C
:103D000080B206D029602B680193D8E90031019A6E
:103D10009847042C05F10405E6D102B0BDE8F08116
:103D20004081004000800040D40900202DE9F0418E
:103D3000114D124FDFF8488082B000244FF48036D6
:103D40002B6806FA04F201347BB1D7F8043305F589
:103D5000A0401A424FF0000180B206D029602B68C3
:103D60000193D8E90331019A9847062C05F104051F
:103D7000E6D102B0BDE8F08140B1014000B00140A1
:103D8000D40900200000000010B5714AD2F80433B5
:103D900099058AB068D5D2F82431002B64D000216F
:103DA0006C4BC2F82411D2F8240193F82910019029
:103DB0004FF40170019CC2F8080309B90121516058
:103DC0006349D86802228DF81820D1F88024C1F800
:103DD00080249FED5D7B996983ED067BCDE9081218
:103DE000D3E90012079006A89047594AD2F81C312F
:103DF000C3B1584B5869196A88426AD993F8281098
:103E000001F0FF00002964D1C2F81C01D2F81C1196
:103E1000039103999C68186A196A205C0131196240
:103E2000C2F81C054A4AD2F84431DBB10021494BA3
:103E3000C2F84411D2F8440193F829100090009878
:103E400009B1012111609A6962B1D8685C6A0021E8
:103E50000122CDE9070499618DF8182006A8D3E95D
:103E6000001290470AB010BD394AD2F804335B07FC
:103E7000BBD5D2F80831002BB7D0364B9969002951
:103E80003ED00021C2F80811D2F80811049104991B
:103E9000D868596AD2F8182542545A6A9969013289
:103EA0005A625A6A8A42A0D1DA69002A31D09A61EC
:103EB0001A69D8685C6ADA60002101220894D96125
:103EC000596207905C6819688DF8182006A8A04709
:103ED0008BE71F4A0020C2F81C01D2F81C21029275
:103EE000029A5A69002A9DD0D3E901215C698DF8B4
:103EF0001800CDE907145861196806A8904791E7A2
:103F0000C2F80811D2F8080105900598D2F81825D2
:103F1000C7E793F8292012B90D4A012151600C4AD4
:103F2000D8684FF40171C2F808135C6A00210122BD
:103F300099618DF81820D3E90012CDE9070406A88D
:103F4000904752E7AFF3008000000000000000003F
:103F500000200040F00900202DE9F043694D90F861
:103F600004802C2303FB085383B093F82A30002BE2
:103F700040F08D8006460C4600686349174600F005
:103F800057FE00287FD1216833684A1C14D01F29AE
:103F900087BFDFF884E101F01F020A464FF0A04E10
:103FA0004FF0010C0CFA02FC02F5E072CEF808C5E5
:103FB0004FF0030C4EF822C0D4F804C0BCF1FF3F10
:103FC0000FD0BCF11F0F8BBF0CF01F026246DFF851
:103FD00048E14FF0A04E02F5E0724FF000094EF8B4
:103FE0002290A269C3F8242594F814E0627DBEF102
:103FF000010F4EEA0202C3F86C25C3F814C5C3F8DA
:104000000C154FD02C2303FB08F3EA1857602269E4
:10401000EA502FB33368227F0021C3F81C11D3F874
:104020001C410094009CC3F84411D3F84411019141
:1040300001993649C3F8041343F3073100294FEAC5
:10404000133428DB324F52017B18D2B283F800239D
:104050000123490904F01F0403FA04F447F821403E
:1040600033680422C3F800252C2303FB08550122E2
:104070000023C5E9063385F829306B6185F82A20CD
:1040800003B0BDE8F083112003B0BDE8F083082041
:1040900003B0BDE8F0831F4904F00F045201D2B20F
:1040A0000A55DEE7A1684A1C0ED01F298BBF01F01C
:1040B0001F020A46DFF860E04FF0A04E02F5E07202
:1040C0004FF0000C4EF822C0E268B2F1FF3F14D06E
:1040D0001F2A87BFDFF8409002F01F0C94464FF074
:1040E000A0494FF0010E0EFA0CFE0CF5E07CC9F869
:1040F00008E54FF0030E49F82CE0C3F80825C3F893
:1041000010157FE7F0090020893D020080000200C1
:1041100000E100E014ED00E000030050F0B52E4C8B
:1041200090F804C02C2303FB0C4385B05D69002D7F
:1041300045D15A6102681D6283F82850C2F81C51AB
:104140009960D2F81C110291029901219160C2F884
:104150001C51D2F81C11019101999868196A465CAA
:10416000196A013119625968C2F81C6511B12846F3
:1041700005B0F0BD5E69196A8E4219D92F4602E07A
:1041800093F82810F9B9D2F81C110029F8D0C2F818
:104190001C71D2F81C1103910399196A10F801E0FF
:1041A000196A01311962C2F81CE5196A8E42EAD80F
:1041B000D2F81C31002BFBD00123D36004E0112581
:1041C000284605B0F0BD0F252C2303FB0C442846E0
:1041D0000023636105B0F0BDF00900200279044BB3
:1041E0002C2101FB02335869003818BF01207047A9
:1041F000F009002030B5504D90F804E02C2303FB6B
:104200000E5387B05C68844624B103684FF4017094
:10421000C3F808032C2303FB0E53986990B1D869A7
:1042200000287AD11961DA61DCF800302C2202FB17
:104230000E52516821B34FF40172C3F804230020D9
:1042400007B030BD9A6193F82920D9605862D861CF
:10425000DCF80030002AE9D1C3F82421D3F8241176
:1042600001910199C3F80821D3F808210292012293
:1042700002991A602C2202FB0E5251680029DAD1F1
:10428000C3F84411D3F8441103910399D3F82411CE
:10429000D3F80841D3F8440154B9002834D1002997
:1042A000F4D02C2303FB0E550023AB610320C7E79A
:1042B0000029F6D150BB9169C3F8080191B1D3F838
:1042C000081104910499D468516AD3F818356354DD
:1042D000536A916901335362536A9942DCF80030A2
:1042E000D4D806E0D3F8081105910599D3F818152C
:1042F000526A2C2202FB0E55002195F82920A96153
:10430000A2B101221A609BE70029CAD12C2303FB2A
:104310000E550023AB610F2092E754B1DCF800305A
:104320004FF40172C3F80423112089E701225A6077
:1043300086E7112084E700BFF0090020000000009C
:1043400010B55B4BD3F824218AB0002A58D0002244
:10435000C3F82421D3F82411049102228DF81820E7
:104360000499544AD3F88014C3F880149FED4E7B0F
:104370000991D3F83C45D06882ED067BCDE907046E
:10438000D2E9001306A89847494BD3F8442152B10B
:104390000021484AC3F84411D3F8440191690390BD
:1043A0000398002961D1424BD3F8202162B100204B
:1043B000C3F82001D3F82021029201213D4A029C3A
:1043C000D9605169002943D1394BD3F85821AAB19A
:1043D0000020C3F85801D3F85811364A01910199C9
:1043E000516959B1D3F84C458DF81800D2E9013123
:1043F0005061CDE9071406A8116898470AB010BDAE
:10440000D3F810110029BFD0C3F81021D3F8101130
:10441000284C05910599A169D3F83C058842B3D190
:10442000E169002933D0C4E90612D3F8002222F052
:104430002002C3F80022E2680792012122698DF868
:104440001810089063682168E26006A898479BE707
:10445000D3F84C458DF81800D2E901315061CDE90F
:10446000071406A811689847AEE79FED0F7BD3F8B5
:104470003C45D0684FF0010CCDE9070482ED067B86
:10448000D2E900138DF818C006A898478BE7E268B8
:10449000A1610123CDE907208DF8183006A8D4E9E1
:1044A0000013984770E700BF000000000000000004
:1044B00000200040200A00202DE9F0470779744EC3
:1044C00007EBC70306EB830386B093F82030002B7D
:1044D00040F0A38005460C4600686E49904600F007
:1044E000A7FB002840F09580D4F800C02A68BCF1F2
:1044F000FF3F4FEAC70912D0BCF11F0F87BFDFF89B
:10450000A0E10CF01F0363464FF0A04E012199403B
:1045100003F5E073CEF8081503214EF82310616807
:104520004B1C0ED01F298BBF01F01F030B46DFF879
:1045300070E14FF0A04E03F5E0734FF0000A4EF823
:1045400023A0A369C2F8243594F814E0637DBEF17A
:10455000010F4EEA0303C2F86C35C2F80CC5C2F86D
:10456000141565D009EB070206EB8203C3F804803B
:10457000236946F82230B8F1000F39D02B68227F2A
:104580000021C3F81011D3F810410194019CC3F825
:104590002011D3F820410294029CC3F82411D3F8CF
:1045A00024410394039CC3F84411D3F84441049478
:1045B000049CC3F85811D3F8581105910599364950
:1045C000C3F8041343F3073100294FEA133428DBFF
:1045D000DFF8D0C052010CEB0103D2B283F8002304
:1045E0000123490904F01F0403FA04F44CF82140A4
:1045F0002B684F4406EB87060121002286F8201025
:104600000821C3F80015C6E90622726106B0BDE8AC
:10461000F087112006B0BDE8F087082006B0BDE89D
:10462000F0871E4904F00F045201D2B20A55E0E7A8
:10463000A368591C0ED01F2B8BBF03F01F01194616
:10464000DFF85CE04FF0A04E01F5E0714FF0000C98
:104650004EF821C0E168B1F1FF3F14D01F2987BF98
:10466000DFF83CA001F01F0C8C464FF0A04A4FF041
:10467000010E0EFA0CFE0CF5E07CCAF808E54FF0CE
:10468000030E4AF82CE0C2F80815C2F8103569E7A5
:10469000200A0020414302001003420014ED00E014
:1046A0000003005000E100E001F0604CBCF1005F4D
:1046B00043D170B590F804E0234C0EEBCE0C04EB24
:1046C0008C0C0346DCF8140082B04FEACE050028BB
:1046D00035D11B68CCF81420C3F82001D3F8202171
:1046E0000192019AC3F85801D3F858210092009A18
:1046F000DCF81460CCF808100122C3F84415C3F8A4
:1047000048659A60DCF8042012B102B070BDC8B9E7
:10471000D3F82021D3F85801002AF8D090B901220B
:10472000DA60D3F85821002AFBD005EB0E0304EB26
:10473000830300225A6102B070BD1020704711201F
:1047400002B070BD0F20F0E7200A00200379054A6F
:1047500003EBC30302EB83035869003818BF012041
:10476000704700BF200A002001F06043B3F1005FF2
:1047700070D1F0B590F804E0424D0EEBCE0305EB9E
:10478000830383B05F684FEACE0627B103684FF416
:104790000474C3F8084306EB0E0C05EB8C0CDCF834
:1047A000184034B3DCF81C40002C55D10368CCF819
:1047B0001C20C3F81041D3F8100101900198C3F8F0
:1047C0004441D3F8440100900098C3F83415C3F86D
:1047D0003825D3F80022CCF8101042F02002C3F89C
:1047E000002217B34FF40472C3F80423002003B06F
:1047F000F0BD0368CCF81820C3F81041D3F81001BD
:1048000001900198C3F84441D3F844010090009806
:10481000C3F83415C3F838250122CCF80C10CCF8B5
:104820001C401A60DDE7F9B920BBD3F81021D3F89A
:104830004411D3F82401002AF5D0764400284FF023
:10484000000305EB860518BF03209942AB6118BF32
:104850000F20CCE71020704797B103684FF4047223
:10486000C3F804231120C2E7B64405EB8E050F20E0
:10487000AA61BCE7764405EB86050320A961B6E78B
